{
  "_format": "hh-sol-artifact-1",
  "contractName": "Demo",
  "sourceName": "contracts/Demo.sol",
  "abi": [
    {
      "inputs": [],
      "stateMutability": "nonpayable",
      "type": "constructor"
    },
    {
      "anonymous": false,
      "inputs": [
        {
          "indexed": true,
          "internalType": "address",
          "name": "_from",
          "type": "address"
        },
        {
          "indexed": false,
          "internalType": "uint256",
          "name": "_amount",
          "type": "uint256"
        },
        {
          "indexed": false,
          "internalType": "uint256",
          "name": "_timestamp",
          "type": "uint256"
        }
      ],
      "name": "Paid",
      "type": "event"
    },
    {
      "inputs": [],
      "name": "pay",
      "outputs": [],
      "stateMutability": "payable",
      "type": "function"
    },
    {
      "inputs": [
        {
          "internalType": "address payable",
          "name": "_to",
          "type": "address"
        }
      ],
      "name": "withdraw",
      "outputs": [],
      "stateMutability": "nonpayable",
      "type": "function"
    },
    {
      "stateMutability": "payable",
      "type": "receive"
    }
  ],
  "bytecode": "0x608060405234801561001057600080fd5b50336000806101000a81548173ffffffffffffffffffffffffffffffffffffffff021916908373ffffffffffffffffffffffffffffffffffffffff160217905550610448806100606000396000f3fe60806040526004361061002d5760003560e01c80631b9265b81461008957806351cff8d91461009357610084565b36610084573373ffffffffffffffffffffffffffffffffffffffff167fdf9a51129930649214df58f542322c245372c6f2fa6fc3c9b40d927c597cd230344260405161007a929190610270565b60405180910390a2005b600080fd5b6100916100bc565b005b34801561009f57600080fd5b506100ba60048036038101906100b591906102fc565b61010e565b005b3373ffffffffffffffffffffffffffffffffffffffff167fdf9a51129930649214df58f542322c245372c6f2fa6fc3c9b40d927c597cd2303442604051610104929190610270565b60405180910390a2565b8060008054906101000a900473ffffffffffffffffffffffffffffffffffffffff1673ffffffffffffffffffffffffffffffffffffffff163373ffffffffffffffffffffffffffffffffffffffff161461019d576040517f08c379a000000000000000000000000000000000000000000000000000000000815260040161019490610386565b60405180910390fd5b600073ffffffffffffffffffffffffffffffffffffffff168173ffffffffffffffffffffffffffffffffffffffff160361020c576040517f08c379a0000000000000000000000000000000000000000000000000000000008152600401610203906103f2565b60405180910390fd5b8173ffffffffffffffffffffffffffffffffffffffff166108fc479081150290604051600060405180830381858888f19350505050158015610252573d6000803e3d6000fd5b505050565b6000819050919050565b61026a81610257565b82525050565b60006040820190506102856000830185610261565b6102926020830184610261565b9392505050565b600080fd5b600073ffffffffffffffffffffffffffffffffffffffff82169050919050565b60006102c98261029e565b9050919050565b6102d9816102be565b81146102e457600080fd5b50565b6000813590506102f6816102d0565b92915050565b60006020828403121561031257610311610299565b5b6000610320848285016102e7565b91505092915050565b600082825260208201905092915050565b7f796f7520617265206e6f7420616e206f776e6572210000000000000000000000600082015250565b6000610370601583610329565b915061037b8261033a565b602082019050919050565b6000602082019050818103600083015261039f81610363565b9050919050565b7f696e636f72726563742061646472657373210000000000000000000000000000600082015250565b60006103dc601283610329565b91506103e7826103a6565b602082019050919050565b6000602082019050818103600083015261040b816103cf565b905091905056fea2646970667358221220fbc123b26eeec8fc94b8a418f3c005db07bf2cd9c294477c6bf83865e0125b4b64736f6c63430008120033",
  "linkReferences": {},
  "deployedLinkReferences": {}
}