{
	"lesson_3_string_address_mapping/Demo.sol": {
		"Demo": {
			"abi": [
				{
					"inputs": [
						{
							"internalType": "string",
							"name": "newValueStr",
							"type": "string"
						}
					],
					"name": "demo",
					"outputs": [],
					"stateMutability": "nonpayable",
					"type": "function"
				},
				{
					"inputs": [
						{
							"internalType": "address",
							"name": "targetAddr",
							"type": "address"
						}
					],
					"name": "getBlance",
					"outputs": [
						{
							"internalType": "uint256",
							"name": "",
							"type": "uint256"
						}
					],
					"stateMutability": "view",
					"type": "function"
				},
				{
					"inputs": [],
					"name": "myAddr",
					"outputs": [
						{
							"internalType": "address",
							"name": "",
							"type": "address"
						}
					],
					"stateMutability": "view",
					"type": "function"
				},
				{
					"inputs": [],
					"name": "myStr",
					"outputs": [
						{
							"internalType": "string",
							"name": "",
							"type": "string"
						}
					],
					"stateMutability": "view",
					"type": "function"
				},
				{
					"inputs": [
						{
							"internalType": "address",
							"name": "",
							"type": "address"
						}
					],
					"name": "payments",
					"outputs": [
						{
							"internalType": "uint256",
							"name": "",
							"type": "uint256"
						}
					],
					"stateMutability": "view",
					"type": "function"
				},
				{
					"inputs": [],
					"name": "receiveFunds",
					"outputs": [],
					"stateMutability": "payable",
					"type": "function"
				},
				{
					"inputs": [
						{
							"internalType": "address",
							"name": "targetAddr",
							"type": "address"
						},
						{
							"internalType": "uint256",
							"name": "amount",
							"type": "uint256"
						}
					],
					"name": "transferTo",
					"outputs": [],
					"stateMutability": "nonpayable",
					"type": "function"
				}
			],
			"devdoc": {
				"kind": "dev",
				"methods": {},
				"version": 1
			},
			"evm": {
				"assembly": "    /* \"lesson_3_string_address_mapping/Demo.sol\":62:1254  contract Demo {... */\n  mstore(0x40, 0x80)\n    /* \"lesson_3_string_address_mapping/Demo.sol\":167:209  0x5B38Da6a701c568545dCfcB03FcB875f56beddC4 */\n  0x5b38da6a701c568545dcfcb03fcb875f56beddc4\n    /* \"lesson_3_string_address_mapping/Demo.sol\":143:209  address public myAddr = 0x5B38Da6a701c568545dCfcB03FcB875f56beddC4 */\n  0x01\n  exp(0x0100, 0x00)\n  dup2\n  sload\n  dup2\n  0xffffffffffffffffffffffffffffffffffffffff\n  mul\n  not\n  and\n  swap1\n  dup4\n  0xffffffffffffffffffffffffffffffffffffffff\n  and\n  mul\n  or\n  swap1\n  sstore\n  pop\n    /* \"lesson_3_string_address_mapping/Demo.sol\":591:619  string public myStr = \"test\" */\n  mload(0x40)\n  dup1\n  0x40\n  add\n  0x40\n  mstore\n  dup1\n  0x04\n  dup2\n  mstore\n  0x20\n  add\n  0x7465737400000000000000000000000000000000000000000000000000000000\n  dup2\n  mstore\n  pop\n  0x02\n  swap1\n  dup2\n  tag_1\n  swap2\n  swap1\n  tag_2\n  jump\t// in\ntag_1:\n  pop\n    /* \"lesson_3_string_address_mapping/Demo.sol\":62:1254  contract Demo {... */\n  callvalue\n  dup1\n  iszero\n  tag_3\n  jumpi\n  0x00\n  dup1\n  revert\ntag_3:\n  pop\n  jump(tag_4)\n    /* \"#utility.yul\":7:106   */\ntag_5:\n    /* \"#utility.yul\":59:65   */\n  0x00\n    /* \"#utility.yul\":93:98   */\n  dup2\n    /* \"#utility.yul\":87:99   */\n  mload\n    /* \"#utility.yul\":77:99   */\n  swap1\n  pop\n    /* \"#utility.yul\":7:106   */\n  swap2\n  swap1\n  pop\n  jump\t// out\n    /* \"#utility.yul\":112:292   */\ntag_6:\n    /* \"#utility.yul\":160:237   */\n  0x4e487b7100000000000000000000000000000000000000000000000000000000\n    /* \"#utility.yul\":157:158   */\n  0x00\n    /* \"#utility.yul\":150:238   */\n  mstore\n    /* \"#utility.yul\":257:261   */\n  0x41\n    /* \"#utility.yul\":254:255   */\n  0x04\n    /* \"#utility.yul\":247:262   */\n  mstore\n    /* \"#utility.yul\":281:285   */\n  0x24\n    /* \"#utility.yul\":278:279   */\n  0x00\n    /* \"#utility.yul\":271:286   */\n  revert\n    /* \"#utility.yul\":298:478   */\ntag_7:\n    /* \"#utility.yul\":346:423   */\n  0x4e487b7100000000000000000000000000000000000000000000000000000000\n    /* \"#utility.yul\":343:344   */\n  0x00\n    /* \"#utility.yul\":336:424   */\n  mstore\n    /* \"#utility.yul\":443:447   */\n  0x22\n    /* \"#utility.yul\":440:441   */\n  0x04\n    /* \"#utility.yul\":433:448   */\n  mstore\n    /* \"#utility.yul\":467:471   */\n  0x24\n    /* \"#utility.yul\":464:465   */\n  0x00\n    /* \"#utility.yul\":457:472   */\n  revert\n    /* \"#utility.yul\":484:804   */\ntag_8:\n    /* \"#utility.yul\":528:534   */\n  0x00\n    /* \"#utility.yul\":565:566   */\n  0x02\n    /* \"#utility.yul\":559:563   */\n  dup3\n    /* \"#utility.yul\":555:567   */\n  div\n    /* \"#utility.yul\":545:567   */\n  swap1\n  pop\n    /* \"#utility.yul\":612:613   */\n  0x01\n    /* \"#utility.yul\":606:610   */\n  dup3\n    /* \"#utility.yul\":602:614   */\n  and\n    /* \"#utility.yul\":633:651   */\n  dup1\n    /* \"#utility.yul\":623:704   */\n  tag_30\n  jumpi\n    /* \"#utility.yul\":689:693   */\n  0x7f\n    /* \"#utility.yul\":681:687   */\n  dup3\n    /* \"#utility.yul\":677:694   */\n  and\n    /* \"#utility.yul\":667:694   */\n  swap2\n  pop\n    /* \"#utility.yul\":623:704   */\ntag_30:\n    /* \"#utility.yul\":751:753   */\n  0x20\n    /* \"#utility.yul\":743:749   */\n  dup3\n    /* \"#utility.yul\":740:754   */\n  lt\n    /* \"#utility.yul\":720:738   */\n  dup2\n    /* \"#utility.yul\":717:755   */\n  sub\n    /* \"#utility.yul\":714:798   */\n  tag_31\n  jumpi\n    /* \"#utility.yul\":770:788   */\n  tag_32\n  tag_7\n  jump\t// in\ntag_32:\n    /* \"#utility.yul\":714:798   */\ntag_31:\n    /* \"#utility.yul\":535:804   */\n  pop\n    /* \"#utility.yul\":484:804   */\n  swap2\n  swap1\n  pop\n  jump\t// out\n    /* \"#utility.yul\":810:951   */\ntag_9:\n    /* \"#utility.yul\":859:863   */\n  0x00\n    /* \"#utility.yul\":882:885   */\n  dup2\n    /* \"#utility.yul\":874:885   */\n  swap1\n  pop\n    /* \"#utility.yul\":905:908   */\n  dup2\n    /* \"#utility.yul\":902:903   */\n  0x00\n    /* \"#utility.yul\":895:909   */\n  mstore\n    /* \"#utility.yul\":939:943   */\n  0x20\n    /* \"#utility.yul\":936:937   */\n  0x00\n    /* \"#utility.yul\":926:944   */\n  keccak256\n    /* \"#utility.yul\":918:944   */\n  swap1\n  pop\n    /* \"#utility.yul\":810:951   */\n  swap2\n  swap1\n  pop\n  jump\t// out\n    /* \"#utility.yul\":957:1050   */\ntag_10:\n    /* \"#utility.yul\":994:1000   */\n  0x00\n    /* \"#utility.yul\":1041:1043   */\n  0x20\n    /* \"#utility.yul\":1036:1038   */\n  0x1f\n    /* \"#utility.yul\":1029:1034   */\n  dup4\n    /* \"#utility.yul\":1025:1039   */\n  add\n    /* \"#utility.yul\":1021:1044   */\n  div\n    /* \"#utility.yul\":1011:1044   */\n  swap1\n  pop\n    /* \"#utility.yul\":957:1050   */\n  swap2\n  swap1\n  pop\n  jump\t// out\n    /* \"#utility.yul\":1056:1163   */\ntag_11:\n    /* \"#utility.yul\":1100:1108   */\n  0x00\n    /* \"#utility.yul\":1150:1155   */\n  dup3\n    /* \"#utility.yul\":1144:1148   */\n  dup3\n    /* \"#utility.yul\":1140:1156   */\n  shl\n    /* \"#utility.yul\":1119:1156   */\n  swap1\n  pop\n    /* \"#utility.yul\":1056:1163   */\n  swap3\n  swap2\n  pop\n  pop\n  jump\t// out\n    /* \"#utility.yul\":1169:1562   */\ntag_12:\n    /* \"#utility.yul\":1238:1244   */\n  0x00\n    /* \"#utility.yul\":1288:1289   */\n  0x08\n    /* \"#utility.yul\":1276:1286   */\n  dup4\n    /* \"#utility.yul\":1272:1290   */\n  mul\n    /* \"#utility.yul\":1311:1408   */\n  tag_37\n    /* \"#utility.yul\":1341:1407   */\n  0xffffffffffffffffffffffffffffffffffffffffffffffffffffffffffffffff\n    /* \"#utility.yul\":1330:1339   */\n  dup3\n    /* \"#utility.yul\":1311:1408   */\n  tag_11\n  jump\t// in\ntag_37:\n    /* \"#utility.yul\":1429:1468   */\n  tag_38\n    /* \"#utility.yul\":1459:1467   */\n  dup7\n    /* \"#utility.yul\":1448:1457   */\n  dup4\n    /* \"#utility.yul\":1429:1468   */\n  tag_11\n  jump\t// in\ntag_38:\n    /* \"#utility.yul\":1417:1468   */\n  swap6\n  pop\n    /* \"#utility.yul\":1501:1505   */\n  dup1\n    /* \"#utility.yul\":1497:1506   */\n  not\n    /* \"#utility.yul\":1490:1495   */\n  dup5\n    /* \"#utility.yul\":1486:1507   */\n  and\n    /* \"#utility.yul\":1477:1507   */\n  swap4\n  pop\n    /* \"#utility.yul\":1550:1554   */\n  dup1\n    /* \"#utility.yul\":1540:1548   */\n  dup7\n    /* \"#utility.yul\":1536:1555   */\n  and\n    /* \"#utility.yul\":1529:1534   */\n  dup5\n    /* \"#utility.yul\":1526:1556   */\n  or\n    /* \"#utility.yul\":1516:1556   */\n  swap3\n  pop\n    /* \"#utility.yul\":1245:1562   */\n  pop\n  pop\n    /* \"#utility.yul\":1169:1562   */\n  swap4\n  swap3\n  pop\n  pop\n  pop\n  jump\t// out\n    /* \"#utility.yul\":1568:1645   */\ntag_13:\n    /* \"#utility.yul\":1605:1612   */\n  0x00\n    /* \"#utility.yul\":1634:1639   */\n  dup2\n    /* \"#utility.yul\":1623:1639   */\n  swap1\n  pop\n    /* \"#utility.yul\":1568:1645   */\n  swap2\n  swap1\n  pop\n  jump\t// out\n    /* \"#utility.yul\":1651:1711   */\ntag_14:\n    /* \"#utility.yul\":1679:1682   */\n  0x00\n    /* \"#utility.yul\":1700:1705   */\n  dup2\n    /* \"#utility.yul\":1693:1705   */\n  swap1\n  pop\n    /* \"#utility.yul\":1651:1711   */\n  swap2\n  swap1\n  pop\n  jump\t// out\n    /* \"#utility.yul\":1717:1859   */\ntag_15:\n    /* \"#utility.yul\":1767:1776   */\n  0x00\n    /* \"#utility.yul\":1800:1853   */\n  tag_42\n    /* \"#utility.yul\":1818:1852   */\n  tag_43\n    /* \"#utility.yul\":1827:1851   */\n  tag_44\n    /* \"#utility.yul\":1845:1850   */\n  dup5\n    /* \"#utility.yul\":1827:1851   */\n  tag_13\n  jump\t// in\ntag_44:\n    /* \"#utility.yul\":1818:1852   */\n  tag_14\n  jump\t// in\ntag_43:\n    /* \"#utility.yul\":1800:1853   */\n  tag_13\n  jump\t// in\ntag_42:\n    /* \"#utility.yul\":1787:1853   */\n  swap1\n  pop\n    /* \"#utility.yul\":1717:1859   */\n  swap2\n  swap1\n  pop\n  jump\t// out\n    /* \"#utility.yul\":1865:1940   */\ntag_16:\n    /* \"#utility.yul\":1908:1911   */\n  0x00\n    /* \"#utility.yul\":1929:1934   */\n  dup2\n    /* \"#utility.yul\":1922:1934   */\n  swap1\n  pop\n    /* \"#utility.yul\":1865:1940   */\n  swap2\n  swap1\n  pop\n  jump\t// out\n    /* \"#utility.yul\":1946:2215   */\ntag_17:\n    /* \"#utility.yul\":2056:2095   */\n  tag_47\n    /* \"#utility.yul\":2087:2094   */\n  dup4\n    /* \"#utility.yul\":2056:2095   */\n  tag_15\n  jump\t// in\ntag_47:\n    /* \"#utility.yul\":2117:2208   */\n  tag_48\n    /* \"#utility.yul\":2166:2207   */\n  tag_49\n    /* \"#utility.yul\":2190:2206   */\n  dup3\n    /* \"#utility.yul\":2166:2207   */\n  tag_16\n  jump\t// in\ntag_49:\n    /* \"#utility.yul\":2158:2164   */\n  dup5\n    /* \"#utility.yul\":2151:2155   */\n  dup5\n    /* \"#utility.yul\":2145:2156   */\n  sload\n    /* \"#utility.yul\":2117:2208   */\n  tag_12\n  jump\t// in\ntag_48:\n    /* \"#utility.yul\":2111:2115   */\n  dup3\n    /* \"#utility.yul\":2104:2209   */\n  sstore\n    /* \"#utility.yul\":2022:2215   */\n  pop\n    /* \"#utility.yul\":1946:2215   */\n  pop\n  pop\n  pop\n  jump\t// out\n    /* \"#utility.yul\":2221:2294   */\ntag_18:\n    /* \"#utility.yul\":2266:2269   */\n  0x00\n    /* \"#utility.yul\":2221:2294   */\n  swap1\n  jump\t// out\n    /* \"#utility.yul\":2300:2489   */\ntag_19:\n    /* \"#utility.yul\":2377:2409   */\n  tag_52\n  tag_18\n  jump\t// in\ntag_52:\n    /* \"#utility.yul\":2418:2483   */\n  tag_53\n    /* \"#utility.yul\":2476:2482   */\n  dup2\n    /* \"#utility.yul\":2468:2474   */\n  dup5\n    /* \"#utility.yul\":2462:2466   */\n  dup5\n    /* \"#utility.yul\":2418:2483   */\n  tag_17\n  jump\t// in\ntag_53:\n    /* \"#utility.yul\":2353:2489   */\n  pop\n    /* \"#utility.yul\":2300:2489   */\n  pop\n  pop\n  jump\t// out\n    /* \"#utility.yul\":2495:2681   */\ntag_20:\n    /* \"#utility.yul\":2555:2675   */\ntag_55:\n    /* \"#utility.yul\":2572:2575   */\n  dup2\n    /* \"#utility.yul\":2565:2570   */\n  dup2\n    /* \"#utility.yul\":2562:2576   */\n  lt\n    /* \"#utility.yul\":2555:2675   */\n  iszero\n  tag_57\n  jumpi\n    /* \"#utility.yul\":2626:2665   */\n  tag_58\n    /* \"#utility.yul\":2663:2664   */\n  0x00\n    /* \"#utility.yul\":2656:2661   */\n  dup3\n    /* \"#utility.yul\":2626:2665   */\n  tag_19\n  jump\t// in\ntag_58:\n    /* \"#utility.yul\":2599:2600   */\n  0x01\n    /* \"#utility.yul\":2592:2597   */\n  dup2\n    /* \"#utility.yul\":2588:2601   */\n  add\n    /* \"#utility.yul\":2579:2601   */\n  swap1\n  pop\n    /* \"#utility.yul\":2555:2675   */\n  jump(tag_55)\ntag_57:\n    /* \"#utility.yul\":2495:2681   */\n  pop\n  pop\n  jump\t// out\n    /* \"#utility.yul\":2687:3230   */\ntag_21:\n    /* \"#utility.yul\":2788:2790   */\n  0x1f\n    /* \"#utility.yul\":2783:2786   */\n  dup3\n    /* \"#utility.yul\":2780:2791   */\n  gt\n    /* \"#utility.yul\":2777:3223   */\n  iszero\n  tag_60\n  jumpi\n    /* \"#utility.yul\":2822:2860   */\n  tag_61\n    /* \"#utility.yul\":2854:2859   */\n  dup2\n    /* \"#utility.yul\":2822:2860   */\n  tag_9\n  jump\t// in\ntag_61:\n    /* \"#utility.yul\":2906:2935   */\n  tag_62\n    /* \"#utility.yul\":2924:2934   */\n  dup5\n    /* \"#utility.yul\":2906:2935   */\n  tag_10\n  jump\t// in\ntag_62:\n    /* \"#utility.yul\":2896:2904   */\n  dup2\n    /* \"#utility.yul\":2892:2936   */\n  add\n    /* \"#utility.yul\":3089:3091   */\n  0x20\n    /* \"#utility.yul\":3077:3087   */\n  dup6\n    /* \"#utility.yul\":3074:3092   */\n  lt\n    /* \"#utility.yul\":3071:3120   */\n  iszero\n  tag_63\n  jumpi\n    /* \"#utility.yul\":3110:3118   */\n  dup2\n    /* \"#utility.yul\":3095:3118   */\n  swap1\n  pop\n    /* \"#utility.yul\":3071:3120   */\ntag_63:\n    /* \"#utility.yul\":3133:3213   */\n  tag_64\n    /* \"#utility.yul\":3189:3211   */\n  tag_65\n    /* \"#utility.yul\":3207:3210   */\n  dup6\n    /* \"#utility.yul\":3189:3211   */\n  tag_10\n  jump\t// in\ntag_65:\n    /* \"#utility.yul\":3179:3187   */\n  dup4\n    /* \"#utility.yul\":3175:3212   */\n  add\n    /* \"#utility.yul\":3162:3173   */\n  dup3\n    /* \"#utility.yul\":3133:3213   */\n  tag_20\n  jump\t// in\ntag_64:\n    /* \"#utility.yul\":2792:3223   */\n  pop\n  pop\n    /* \"#utility.yul\":2777:3223   */\ntag_60:\n    /* \"#utility.yul\":2687:3230   */\n  pop\n  pop\n  pop\n  jump\t// out\n    /* \"#utility.yul\":3236:3353   */\ntag_22:\n    /* \"#utility.yul\":3290:3298   */\n  0x00\n    /* \"#utility.yul\":3340:3345   */\n  dup3\n    /* \"#utility.yul\":3334:3338   */\n  dup3\n    /* \"#utility.yul\":3330:3346   */\n  shr\n    /* \"#utility.yul\":3309:3346   */\n  swap1\n  pop\n    /* \"#utility.yul\":3236:3353   */\n  swap3\n  swap2\n  pop\n  pop\n  jump\t// out\n    /* \"#utility.yul\":3359:3528   */\ntag_23:\n    /* \"#utility.yul\":3403:3409   */\n  0x00\n    /* \"#utility.yul\":3436:3487   */\n  tag_68\n    /* \"#utility.yul\":3484:3485   */\n  0x00\n    /* \"#utility.yul\":3480:3486   */\n  not\n    /* \"#utility.yul\":3472:3477   */\n  dup5\n    /* \"#utility.yul\":3469:3470   */\n  0x08\n    /* \"#utility.yul\":3465:3478   */\n  mul\n    /* \"#utility.yul\":3436:3487   */\n  tag_22\n  jump\t// in\ntag_68:\n    /* \"#utility.yul\":3432:3488   */\n  not\n    /* \"#utility.yul\":3517:3521   */\n  dup1\n    /* \"#utility.yul\":3511:3515   */\n  dup4\n    /* \"#utility.yul\":3507:3522   */\n  and\n    /* \"#utility.yul\":3497:3522   */\n  swap2\n  pop\n    /* \"#utility.yul\":3410:3528   */\n  pop\n    /* \"#utility.yul\":3359:3528   */\n  swap3\n  swap2\n  pop\n  pop\n  jump\t// out\n    /* \"#utility.yul\":3533:3828   */\ntag_24:\n    /* \"#utility.yul\":3609:3613   */\n  0x00\n    /* \"#utility.yul\":3755:3784   */\n  tag_70\n    /* \"#utility.yul\":3780:3783   */\n  dup4\n    /* \"#utility.yul\":3774:3778   */\n  dup4\n    /* \"#utility.yul\":3755:3784   */\n  tag_23\n  jump\t// in\ntag_70:\n    /* \"#utility.yul\":3747:3784   */\n  swap2\n  pop\n    /* \"#utility.yul\":3817:3820   */\n  dup3\n    /* \"#utility.yul\":3814:3815   */\n  0x02\n    /* \"#utility.yul\":3810:3821   */\n  mul\n    /* \"#utility.yul\":3804:3808   */\n  dup3\n    /* \"#utility.yul\":3801:3822   */\n  or\n    /* \"#utility.yul\":3793:3822   */\n  swap1\n  pop\n    /* \"#utility.yul\":3533:3828   */\n  swap3\n  swap2\n  pop\n  pop\n  jump\t// out\n    /* \"#utility.yul\":3833:5228   */\ntag_2:\n    /* \"#utility.yul\":3950:3987   */\n  tag_72\n    /* \"#utility.yul\":3983:3986   */\n  dup3\n    /* \"#utility.yul\":3950:3987   */\n  tag_5\n  jump\t// in\ntag_72:\n    /* \"#utility.yul\":4052:4070   */\n  0xffffffffffffffff\n    /* \"#utility.yul\":4044:4050   */\n  dup2\n    /* \"#utility.yul\":4041:4071   */\n  gt\n    /* \"#utility.yul\":4038:4094   */\n  iszero\n  tag_73\n  jumpi\n    /* \"#utility.yul\":4074:4092   */\n  tag_74\n  tag_6\n  jump\t// in\ntag_74:\n    /* \"#utility.yul\":4038:4094   */\ntag_73:\n    /* \"#utility.yul\":4118:4156   */\n  tag_75\n    /* \"#utility.yul\":4150:4154   */\n  dup3\n    /* \"#utility.yul\":4144:4155   */\n  sload\n    /* \"#utility.yul\":4118:4156   */\n  tag_8\n  jump\t// in\ntag_75:\n    /* \"#utility.yul\":4203:4270   */\n  tag_76\n    /* \"#utility.yul\":4263:4269   */\n  dup3\n    /* \"#utility.yul\":4255:4261   */\n  dup3\n    /* \"#utility.yul\":4249:4253   */\n  dup6\n    /* \"#utility.yul\":4203:4270   */\n  tag_21\n  jump\t// in\ntag_76:\n    /* \"#utility.yul\":4297:4298   */\n  0x00\n    /* \"#utility.yul\":4321:4325   */\n  0x20\n    /* \"#utility.yul\":4308:4325   */\n  swap1\n  pop\n    /* \"#utility.yul\":4353:4355   */\n  0x1f\n    /* \"#utility.yul\":4345:4351   */\n  dup4\n    /* \"#utility.yul\":4342:4356   */\n  gt\n    /* \"#utility.yul\":4370:4371   */\n  0x01\n    /* \"#utility.yul\":4365:4983   */\n  dup2\n  eq\n  tag_78\n  jumpi\n    /* \"#utility.yul\":5027:5028   */\n  0x00\n    /* \"#utility.yul\":5044:5050   */\n  dup5\n    /* \"#utility.yul\":5041:5118   */\n  iszero\n  tag_79\n  jumpi\n    /* \"#utility.yul\":5093:5102   */\n  dup3\n    /* \"#utility.yul\":5088:5091   */\n  dup8\n    /* \"#utility.yul\":5084:5103   */\n  add\n    /* \"#utility.yul\":5078:5104   */\n  mload\n    /* \"#utility.yul\":5069:5104   */\n  swap1\n  pop\n    /* \"#utility.yul\":5041:5118   */\ntag_79:\n    /* \"#utility.yul\":5144:5211   */\n  tag_80\n    /* \"#utility.yul\":5204:5210   */\n  dup6\n    /* \"#utility.yul\":5197:5202   */\n  dup3\n    /* \"#utility.yul\":5144:5211   */\n  tag_24\n  jump\t// in\ntag_80:\n    /* \"#utility.yul\":5138:5142   */\n  dup7\n    /* \"#utility.yul\":5131:5212   */\n  sstore\n    /* \"#utility.yul\":5000:5222   */\n  pop\n    /* \"#utility.yul\":4335:5222   */\n  jump(tag_77)\n    /* \"#utility.yul\":4365:4983   */\ntag_78:\n    /* \"#utility.yul\":4417:4421   */\n  0x1f\n    /* \"#utility.yul\":4413:4422   */\n  not\n    /* \"#utility.yul\":4405:4411   */\n  dup5\n    /* \"#utility.yul\":4401:4423   */\n  and\n    /* \"#utility.yul\":4451:4488   */\n  tag_81\n    /* \"#utility.yul\":4483:4487   */\n  dup7\n    /* \"#utility.yul\":4451:4488   */\n  tag_9\n  jump\t// in\ntag_81:\n    /* \"#utility.yul\":4510:4511   */\n  0x00\n    /* \"#utility.yul\":4524:4732   */\ntag_82:\n    /* \"#utility.yul\":4538:4545   */\n  dup3\n    /* \"#utility.yul\":4535:4536   */\n  dup2\n    /* \"#utility.yul\":4532:4546   */\n  lt\n    /* \"#utility.yul\":4524:4732   */\n  iszero\n  tag_84\n  jumpi\n    /* \"#utility.yul\":4617:4626   */\n  dup5\n    /* \"#utility.yul\":4612:4615   */\n  dup10\n    /* \"#utility.yul\":4608:4627   */\n  add\n    /* \"#utility.yul\":4602:4628   */\n  mload\n    /* \"#utility.yul\":4594:4600   */\n  dup3\n    /* \"#utility.yul\":4587:4629   */\n  sstore\n    /* \"#utility.yul\":4668:4669   */\n  0x01\n    /* \"#utility.yul\":4660:4666   */\n  dup3\n    /* \"#utility.yul\":4656:4670   */\n  add\n    /* \"#utility.yul\":4646:4670   */\n  swap2\n  pop\n    /* \"#utility.yul\":4715:4717   */\n  0x20\n    /* \"#utility.yul\":4704:4713   */\n  dup6\n    /* \"#utility.yul\":4700:4718   */\n  add\n    /* \"#utility.yul\":4687:4718   */\n  swap5\n  pop\n    /* \"#utility.yul\":4561:4565   */\n  0x20\n    /* \"#utility.yul\":4558:4559   */\n  dup2\n    /* \"#utility.yul\":4554:4566   */\n  add\n    /* \"#utility.yul\":4549:4566   */\n  swap1\n  pop\n    /* \"#utility.yul\":4524:4732   */\n  jump(tag_82)\ntag_84:\n    /* \"#utility.yul\":4760:4766   */\n  dup7\n    /* \"#utility.yul\":4751:4758   */\n  dup4\n    /* \"#utility.yul\":4748:4767   */\n  lt\n    /* \"#utility.yul\":4745:4924   */\n  iszero\n  tag_85\n  jumpi\n    /* \"#utility.yul\":4818:4827   */\n  dup5\n    /* \"#utility.yul\":4813:4816   */\n  dup10\n    /* \"#utility.yul\":4809:4828   */\n  add\n    /* \"#utility.yul\":4803:4829   */\n  mload\n    /* \"#utility.yul\":4861:4909   */\n  tag_86\n    /* \"#utility.yul\":4903:4907   */\n  0x1f\n    /* \"#utility.yul\":4895:4901   */\n  dup10\n    /* \"#utility.yul\":4891:4908   */\n  and\n    /* \"#utility.yul\":4880:4889   */\n  dup3\n    /* \"#utility.yul\":4861:4909   */\n  tag_23\n  jump\t// in\ntag_86:\n    /* \"#utility.yul\":4853:4859   */\n  dup4\n    /* \"#utility.yul\":4846:4910   */\n  sstore\n    /* \"#utility.yul\":4768:4924   */\n  pop\n    /* \"#utility.yul\":4745:4924   */\ntag_85:\n    /* \"#utility.yul\":4970:4971   */\n  0x01\n    /* \"#utility.yul\":4966:4967   */\n  0x02\n    /* \"#utility.yul\":4958:4964   */\n  dup9\n    /* \"#utility.yul\":4954:4968   */\n  mul\n    /* \"#utility.yul\":4950:4972   */\n  add\n    /* \"#utility.yul\":4944:4948   */\n  dup9\n    /* \"#utility.yul\":4937:4973   */\n  sstore\n    /* \"#utility.yul\":4372:4983   */\n  pop\n  pop\n  pop\n    /* \"#utility.yul\":4335:5222   */\ntag_77:\n  pop\n    /* \"#utility.yul\":3925:5228   */\n  pop\n  pop\n  pop\n    /* \"#utility.yul\":3833:5228   */\n  pop\n  pop\n  jump\t// out\n    /* \"lesson_3_string_address_mapping/Demo.sol\":62:1254  contract Demo {... */\ntag_4:\n  dataSize(sub_0)\n  dup1\n  dataOffset(sub_0)\n  0x00\n  codecopy\n  0x00\n  return\nstop\n\nsub_0: assembly {\n        /* \"lesson_3_string_address_mapping/Demo.sol\":62:1254  contract Demo {... */\n      mstore(0x40, 0x80)\n      jumpi(tag_1, lt(calldatasize, 0x04))\n      shr(0xe0, calldataload(0x00))\n      dup1\n      0x5a455c1c\n      gt\n      tag_9\n      jumpi\n      dup1\n      0x5a455c1c\n      eq\n      tag_5\n      jumpi\n      dup1\n      0x939a79ac\n      eq\n      tag_6\n      jumpi\n      dup1\n      0xe2982c21\n      eq\n      tag_7\n      jumpi\n      dup1\n      0xe665b266\n      eq\n      tag_8\n      jumpi\n      jump(tag_1)\n    tag_9:\n      dup1\n      0x5c33e1\n      eq\n      tag_2\n      jumpi\n      dup1\n      0x031f1fc5\n      eq\n      tag_3\n      jumpi\n      dup1\n      0x2ccb1b30\n      eq\n      tag_4\n      jumpi\n    tag_1:\n      0x00\n      dup1\n      revert\n        /* \"lesson_3_string_address_mapping/Demo.sol\":218:309  function receiveFunds() public payable {... */\n    tag_2:\n      tag_10\n      tag_11\n      jump\t// in\n    tag_10:\n      stop\n        /* \"lesson_3_string_address_mapping/Demo.sol\":476:585  function getBlance(address targetAddr) public view returns(uint) {... */\n    tag_3:\n      callvalue\n      dup1\n      iszero\n      tag_12\n      jumpi\n      0x00\n      dup1\n      revert\n    tag_12:\n      pop\n      tag_13\n      0x04\n      dup1\n      calldatasize\n      sub\n      dup2\n      add\n      swap1\n      tag_14\n      swap2\n      swap1\n      tag_15\n      jump\t// in\n    tag_14:\n      tag_16\n      jump\t// in\n    tag_13:\n      mload(0x40)\n      tag_17\n      swap2\n      swap1\n      tag_18\n      jump\t// in\n    tag_17:\n      mload(0x40)\n      dup1\n      swap2\n      sub\n      swap1\n      return\n        /* \"lesson_3_string_address_mapping/Demo.sol\":317:468  function transferTo(address targetAddr, uint amount) public {... */\n    tag_4:\n      callvalue\n      dup1\n      iszero\n      tag_19\n      jumpi\n      0x00\n      dup1\n      revert\n    tag_19:\n      pop\n      tag_20\n      0x04\n      dup1\n      calldatasize\n      sub\n      dup2\n      add\n      swap1\n      tag_21\n      swap2\n      swap1\n      tag_22\n      jump\t// in\n    tag_21:\n      tag_23\n      jump\t// in\n    tag_20:\n      stop\n        /* \"lesson_3_string_address_mapping/Demo.sol\":591:619  string public myStr = \"test\" */\n    tag_5:\n      callvalue\n      dup1\n      iszero\n      tag_24\n      jumpi\n      0x00\n      dup1\n      revert\n    tag_24:\n      pop\n      tag_25\n      tag_26\n      jump\t// in\n    tag_25:\n      mload(0x40)\n      tag_27\n      swap2\n      swap1\n      tag_28\n      jump\t// in\n    tag_27:\n      mload(0x40)\n      dup1\n      swap2\n      sub\n      swap1\n      return\n        /* \"lesson_3_string_address_mapping/Demo.sol\":817:1251  function demo (string memory newValueStr) public {... */\n    tag_6:\n      callvalue\n      dup1\n      iszero\n      tag_29\n      jumpi\n      0x00\n      dup1\n      revert\n    tag_29:\n      pop\n      tag_30\n      0x04\n      dup1\n      calldatasize\n      sub\n      dup2\n      add\n      swap1\n      tag_31\n      swap2\n      swap1\n      tag_32\n      jump\t// in\n    tag_31:\n      tag_33\n      jump\t// in\n    tag_30:\n      stop\n        /* \"lesson_3_string_address_mapping/Demo.sol\":83:123  mapping(address => uint) public payments */\n    tag_7:\n      callvalue\n      dup1\n      iszero\n      tag_34\n      jumpi\n      0x00\n      dup1\n      revert\n    tag_34:\n      pop\n      tag_35\n      0x04\n      dup1\n      calldatasize\n      sub\n      dup2\n      add\n      swap1\n      tag_36\n      swap2\n      swap1\n      tag_15\n      jump\t// in\n    tag_36:\n      tag_37\n      jump\t// in\n    tag_35:\n      mload(0x40)\n      tag_38\n      swap2\n      swap1\n      tag_18\n      jump\t// in\n    tag_38:\n      mload(0x40)\n      dup1\n      swap2\n      sub\n      swap1\n      return\n        /* \"lesson_3_string_address_mapping/Demo.sol\":143:209  address public myAddr = 0x5B38Da6a701c568545dCfcB03FcB875f56beddC4 */\n    tag_8:\n      callvalue\n      dup1\n      iszero\n      tag_39\n      jumpi\n      0x00\n      dup1\n      revert\n    tag_39:\n      pop\n      tag_40\n      tag_41\n      jump\t// in\n    tag_40:\n      mload(0x40)\n      tag_42\n      swap2\n      swap1\n      tag_43\n      jump\t// in\n    tag_42:\n      mload(0x40)\n      dup1\n      swap2\n      sub\n      swap1\n      return\n        /* \"lesson_3_string_address_mapping/Demo.sol\":218:309  function receiveFunds() public payable {... */\n    tag_11:\n        /* \"lesson_3_string_address_mapping/Demo.sol\":292:301  msg.value */\n      callvalue\n        /* \"lesson_3_string_address_mapping/Demo.sol\":268:276  payments */\n      0x00\n        /* \"lesson_3_string_address_mapping/Demo.sol\":268:288  payments[msg.sender] */\n      dup1\n        /* \"lesson_3_string_address_mapping/Demo.sol\":277:287  msg.sender */\n      caller\n        /* \"lesson_3_string_address_mapping/Demo.sol\":268:288  payments[msg.sender] */\n      0xffffffffffffffffffffffffffffffffffffffff\n      and\n      0xffffffffffffffffffffffffffffffffffffffff\n      and\n      dup2\n      mstore\n      0x20\n      add\n      swap1\n      dup2\n      mstore\n      0x20\n      add\n      0x00\n      keccak256\n        /* \"lesson_3_string_address_mapping/Demo.sol\":268:301  payments[msg.sender] =  msg.value */\n      dup2\n      swap1\n      sstore\n      pop\n        /* \"lesson_3_string_address_mapping/Demo.sol\":218:309  function receiveFunds() public payable {... */\n      jump\t// out\n        /* \"lesson_3_string_address_mapping/Demo.sol\":476:585  function getBlance(address targetAddr) public view returns(uint) {... */\n    tag_16:\n        /* \"lesson_3_string_address_mapping/Demo.sol\":535:539  uint */\n      0x00\n        /* \"lesson_3_string_address_mapping/Demo.sol\":559:569  targetAddr */\n      dup2\n        /* \"lesson_3_string_address_mapping/Demo.sol\":559:577  targetAddr.balance */\n      0xffffffffffffffffffffffffffffffffffffffff\n      and\n      balance\n        /* \"lesson_3_string_address_mapping/Demo.sol\":552:577  return targetAddr.balance */\n      swap1\n      pop\n        /* \"lesson_3_string_address_mapping/Demo.sol\":476:585  function getBlance(address targetAddr) public view returns(uint) {... */\n      swap2\n      swap1\n      pop\n      jump\t// out\n        /* \"lesson_3_string_address_mapping/Demo.sol\":317:468  function transferTo(address targetAddr, uint amount) public {... */\n    tag_23:\n        /* \"lesson_3_string_address_mapping/Demo.sol\":388:407  address payable _to */\n      0x00\n        /* \"lesson_3_string_address_mapping/Demo.sol\":418:428  targetAddr */\n      dup3\n        /* \"lesson_3_string_address_mapping/Demo.sol\":388:429  address payable _to = payable(targetAddr) */\n      swap1\n      pop\n        /* \"lesson_3_string_address_mapping/Demo.sol\":440:443  _to */\n      dup1\n        /* \"lesson_3_string_address_mapping/Demo.sol\":440:452  _to.transfer */\n      0xffffffffffffffffffffffffffffffffffffffff\n      and\n        /* \"lesson_3_string_address_mapping/Demo.sol\":440:460  _to.transfer(amount) */\n      0x08fc\n        /* \"lesson_3_string_address_mapping/Demo.sol\":453:459  amount */\n      dup4\n        /* \"lesson_3_string_address_mapping/Demo.sol\":440:460  _to.transfer(amount) */\n      swap1\n      dup2\n      iszero\n      mul\n      swap1\n      mload(0x40)\n      0x00\n      mload(0x40)\n      dup1\n      dup4\n      sub\n      dup2\n      dup6\n      dup9\n      dup9\n      call\n      swap4\n      pop\n      pop\n      pop\n      pop\n      iszero\n      dup1\n      iszero\n      tag_48\n      jumpi\n      returndatasize\n      0x00\n      dup1\n      returndatacopy\n      revert(0x00, returndatasize)\n    tag_48:\n      pop\n        /* \"lesson_3_string_address_mapping/Demo.sol\":377:468  {... */\n      pop\n        /* \"lesson_3_string_address_mapping/Demo.sol\":317:468  function transferTo(address targetAddr, uint amount) public {... */\n      pop\n      pop\n      jump\t// out\n        /* \"lesson_3_string_address_mapping/Demo.sol\":591:619  string public myStr = \"test\" */\n    tag_26:\n      0x02\n      dup1\n      sload\n      tag_49\n      swap1\n      tag_50\n      jump\t// in\n    tag_49:\n      dup1\n      0x1f\n      add\n      0x20\n      dup1\n      swap2\n      div\n      mul\n      0x20\n      add\n      mload(0x40)\n      swap1\n      dup2\n      add\n      0x40\n      mstore\n      dup1\n      swap3\n      swap2\n      swap1\n      dup2\n      dup2\n      mstore\n      0x20\n      add\n      dup3\n      dup1\n      sload\n      tag_51\n      swap1\n      tag_50\n      jump\t// in\n    tag_51:\n      dup1\n      iszero\n      tag_52\n      jumpi\n      dup1\n      0x1f\n      lt\n      tag_53\n      jumpi\n      0x0100\n      dup1\n      dup4\n      sload\n      div\n      mul\n      dup4\n      mstore\n      swap2\n      0x20\n      add\n      swap2\n      jump(tag_52)\n    tag_53:\n      dup3\n      add\n      swap2\n      swap1\n      0x00\n      mstore\n      keccak256(0x00, 0x20)\n      swap1\n    tag_54:\n      dup2\n      sload\n      dup2\n      mstore\n      swap1\n      0x01\n      add\n      swap1\n      0x20\n      add\n      dup1\n      dup4\n      gt\n      tag_54\n      jumpi\n      dup3\n      swap1\n      sub\n      0x1f\n      and\n      dup3\n      add\n      swap2\n    tag_52:\n      pop\n      pop\n      pop\n      pop\n      pop\n      dup2\n      jump\t// out\n        /* \"lesson_3_string_address_mapping/Demo.sol\":817:1251  function demo (string memory newValueStr) public {... */\n    tag_33:\n        /* \"lesson_3_string_address_mapping/Demo.sol\":877:900  string memory myTempStr */\n      0x00\n        /* \"lesson_3_string_address_mapping/Demo.sol\":877:909  string memory myTempStr = \"temp\" */\n      mload(0x40)\n      dup1\n      0x40\n      add\n      0x40\n      mstore\n      dup1\n      0x04\n      dup2\n      mstore\n      0x20\n      add\n      0x74656d7000000000000000000000000000000000000000000000000000000000\n      dup2\n      mstore\n      pop\n      swap1\n      pop\n        /* \"lesson_3_string_address_mapping/Demo.sol\":928:939  newValueStr */\n      dup2\n        /* \"lesson_3_string_address_mapping/Demo.sol\":920:925  myStr */\n      0x02\n        /* \"lesson_3_string_address_mapping/Demo.sol\":920:939  myStr = newValueStr */\n      swap1\n      dup2\n      tag_56\n      swap2\n      swap1\n      tag_57\n      jump\t// in\n    tag_56:\n      pop\n        /* \"lesson_3_string_address_mapping/Demo.sol\":866:1251  {... */\n      pop\n        /* \"lesson_3_string_address_mapping/Demo.sol\":817:1251  function demo (string memory newValueStr) public {... */\n      pop\n      jump\t// out\n        /* \"lesson_3_string_address_mapping/Demo.sol\":83:123  mapping(address => uint) public payments */\n    tag_37:\n      mstore(0x20, 0x00)\n      dup1\n      0x00\n      mstore\n      keccak256(0x00, 0x40)\n      0x00\n      swap2\n      pop\n      swap1\n      pop\n      sload\n      dup2\n      jump\t// out\n        /* \"lesson_3_string_address_mapping/Demo.sol\":143:209  address public myAddr = 0x5B38Da6a701c568545dCfcB03FcB875f56beddC4 */\n    tag_41:\n      0x01\n      0x00\n      swap1\n      sload\n      swap1\n      0x0100\n      exp\n      swap1\n      div\n      0xffffffffffffffffffffffffffffffffffffffff\n      and\n      dup2\n      jump\t// out\n        /* \"#utility.yul\":7:82   */\n    tag_58:\n        /* \"#utility.yul\":40:46   */\n      0x00\n        /* \"#utility.yul\":73:75   */\n      0x40\n        /* \"#utility.yul\":67:76   */\n      mload\n        /* \"#utility.yul\":57:76   */\n      swap1\n      pop\n        /* \"#utility.yul\":7:82   */\n      swap1\n      jump\t// out\n        /* \"#utility.yul\":88:205   */\n    tag_59:\n        /* \"#utility.yul\":197:198   */\n      0x00\n        /* \"#utility.yul\":194:195   */\n      dup1\n        /* \"#utility.yul\":187:199   */\n      revert\n        /* \"#utility.yul\":211:328   */\n    tag_60:\n        /* \"#utility.yul\":320:321   */\n      0x00\n        /* \"#utility.yul\":317:318   */\n      dup1\n        /* \"#utility.yul\":310:322   */\n      revert\n        /* \"#utility.yul\":334:460   */\n    tag_61:\n        /* \"#utility.yul\":371:378   */\n      0x00\n        /* \"#utility.yul\":411:453   */\n      0xffffffffffffffffffffffffffffffffffffffff\n        /* \"#utility.yul\":404:409   */\n      dup3\n        /* \"#utility.yul\":400:454   */\n      and\n        /* \"#utility.yul\":389:454   */\n      swap1\n      pop\n        /* \"#utility.yul\":334:460   */\n      swap2\n      swap1\n      pop\n      jump\t// out\n        /* \"#utility.yul\":466:562   */\n    tag_62:\n        /* \"#utility.yul\":503:510   */\n      0x00\n        /* \"#utility.yul\":532:556   */\n      tag_106\n        /* \"#utility.yul\":550:555   */\n      dup3\n        /* \"#utility.yul\":532:556   */\n      tag_61\n      jump\t// in\n    tag_106:\n        /* \"#utility.yul\":521:556   */\n      swap1\n      pop\n        /* \"#utility.yul\":466:562   */\n      swap2\n      swap1\n      pop\n      jump\t// out\n        /* \"#utility.yul\":568:690   */\n    tag_63:\n        /* \"#utility.yul\":641:665   */\n      tag_108\n        /* \"#utility.yul\":659:664   */\n      dup2\n        /* \"#utility.yul\":641:665   */\n      tag_62\n      jump\t// in\n    tag_108:\n        /* \"#utility.yul\":634:639   */\n      dup2\n        /* \"#utility.yul\":631:666   */\n      eq\n        /* \"#utility.yul\":621:684   */\n      tag_109\n      jumpi\n        /* \"#utility.yul\":680:681   */\n      0x00\n        /* \"#utility.yul\":677:678   */\n      dup1\n        /* \"#utility.yul\":670:682   */\n      revert\n        /* \"#utility.yul\":621:684   */\n    tag_109:\n        /* \"#utility.yul\":568:690   */\n      pop\n      jump\t// out\n        /* \"#utility.yul\":696:835   */\n    tag_64:\n        /* \"#utility.yul\":742:747   */\n      0x00\n        /* \"#utility.yul\":780:786   */\n      dup2\n        /* \"#utility.yul\":767:787   */\n      calldataload\n        /* \"#utility.yul\":758:787   */\n      swap1\n      pop\n        /* \"#utility.yul\":796:829   */\n      tag_111\n        /* \"#utility.yul\":823:828   */\n      dup2\n        /* \"#utility.yul\":796:829   */\n      tag_63\n      jump\t// in\n    tag_111:\n        /* \"#utility.yul\":696:835   */\n      swap3\n      swap2\n      pop\n      pop\n      jump\t// out\n        /* \"#utility.yul\":841:1170   */\n    tag_15:\n        /* \"#utility.yul\":900:906   */\n      0x00\n        /* \"#utility.yul\":949:951   */\n      0x20\n        /* \"#utility.yul\":937:946   */\n      dup3\n        /* \"#utility.yul\":928:935   */\n      dup5\n        /* \"#utility.yul\":924:947   */\n      sub\n        /* \"#utility.yul\":920:952   */\n      slt\n        /* \"#utility.yul\":917:1036   */\n      iszero\n      tag_113\n      jumpi\n        /* \"#utility.yul\":955:1034   */\n      tag_114\n      tag_59\n      jump\t// in\n    tag_114:\n        /* \"#utility.yul\":917:1036   */\n    tag_113:\n        /* \"#utility.yul\":1075:1076   */\n      0x00\n        /* \"#utility.yul\":1100:1153   */\n      tag_115\n        /* \"#utility.yul\":1145:1152   */\n      dup5\n        /* \"#utility.yul\":1136:1142   */\n      dup3\n        /* \"#utility.yul\":1125:1134   */\n      dup6\n        /* \"#utility.yul\":1121:1143   */\n      add\n        /* \"#utility.yul\":1100:1153   */\n      tag_64\n      jump\t// in\n    tag_115:\n        /* \"#utility.yul\":1090:1153   */\n      swap2\n      pop\n        /* \"#utility.yul\":1046:1163   */\n      pop\n        /* \"#utility.yul\":841:1170   */\n      swap3\n      swap2\n      pop\n      pop\n      jump\t// out\n        /* \"#utility.yul\":1176:1253   */\n    tag_65:\n        /* \"#utility.yul\":1213:1220   */\n      0x00\n        /* \"#utility.yul\":1242:1247   */\n      dup2\n        /* \"#utility.yul\":1231:1247   */\n      swap1\n      pop\n        /* \"#utility.yul\":1176:1253   */\n      swap2\n      swap1\n      pop\n      jump\t// out\n        /* \"#utility.yul\":1259:1377   */\n    tag_66:\n        /* \"#utility.yul\":1346:1370   */\n      tag_118\n        /* \"#utility.yul\":1364:1369   */\n      dup2\n        /* \"#utility.yul\":1346:1370   */\n      tag_65\n      jump\t// in\n    tag_118:\n        /* \"#utility.yul\":1341:1344   */\n      dup3\n        /* \"#utility.yul\":1334:1371   */\n      mstore\n        /* \"#utility.yul\":1259:1377   */\n      pop\n      pop\n      jump\t// out\n        /* \"#utility.yul\":1383:1605   */\n    tag_18:\n        /* \"#utility.yul\":1476:1480   */\n      0x00\n        /* \"#utility.yul\":1514:1516   */\n      0x20\n        /* \"#utility.yul\":1503:1512   */\n      dup3\n        /* \"#utility.yul\":1499:1517   */\n      add\n        /* \"#utility.yul\":1491:1517   */\n      swap1\n      pop\n        /* \"#utility.yul\":1527:1598   */\n      tag_120\n        /* \"#utility.yul\":1595:1596   */\n      0x00\n        /* \"#utility.yul\":1584:1593   */\n      dup4\n        /* \"#utility.yul\":1580:1597   */\n      add\n        /* \"#utility.yul\":1571:1577   */\n      dup5\n        /* \"#utility.yul\":1527:1598   */\n      tag_66\n      jump\t// in\n    tag_120:\n        /* \"#utility.yul\":1383:1605   */\n      swap3\n      swap2\n      pop\n      pop\n      jump\t// out\n        /* \"#utility.yul\":1611:1733   */\n    tag_67:\n        /* \"#utility.yul\":1684:1708   */\n      tag_122\n        /* \"#utility.yul\":1702:1707   */\n      dup2\n        /* \"#utility.yul\":1684:1708   */\n      tag_65\n      jump\t// in\n    tag_122:\n        /* \"#utility.yul\":1677:1682   */\n      dup2\n        /* \"#utility.yul\":1674:1709   */\n      eq\n        /* \"#utility.yul\":1664:1727   */\n      tag_123\n      jumpi\n        /* \"#utility.yul\":1723:1724   */\n      0x00\n        /* \"#utility.yul\":1720:1721   */\n      dup1\n        /* \"#utility.yul\":1713:1725   */\n      revert\n        /* \"#utility.yul\":1664:1727   */\n    tag_123:\n        /* \"#utility.yul\":1611:1733   */\n      pop\n      jump\t// out\n        /* \"#utility.yul\":1739:1878   */\n    tag_68:\n        /* \"#utility.yul\":1785:1790   */\n      0x00\n        /* \"#utility.yul\":1823:1829   */\n      dup2\n        /* \"#utility.yul\":1810:1830   */\n      calldataload\n        /* \"#utility.yul\":1801:1830   */\n      swap1\n      pop\n        /* \"#utility.yul\":1839:1872   */\n      tag_125\n        /* \"#utility.yul\":1866:1871   */\n      dup2\n        /* \"#utility.yul\":1839:1872   */\n      tag_67\n      jump\t// in\n    tag_125:\n        /* \"#utility.yul\":1739:1878   */\n      swap3\n      swap2\n      pop\n      pop\n      jump\t// out\n        /* \"#utility.yul\":1884:2358   */\n    tag_22:\n        /* \"#utility.yul\":1952:1958   */\n      0x00\n        /* \"#utility.yul\":1960:1966   */\n      dup1\n        /* \"#utility.yul\":2009:2011   */\n      0x40\n        /* \"#utility.yul\":1997:2006   */\n      dup4\n        /* \"#utility.yul\":1988:1995   */\n      dup6\n        /* \"#utility.yul\":1984:2007   */\n      sub\n        /* \"#utility.yul\":1980:2012   */\n      slt\n        /* \"#utility.yul\":1977:2096   */\n      iszero\n      tag_127\n      jumpi\n        /* \"#utility.yul\":2015:2094   */\n      tag_128\n      tag_59\n      jump\t// in\n    tag_128:\n        /* \"#utility.yul\":1977:2096   */\n    tag_127:\n        /* \"#utility.yul\":2135:2136   */\n      0x00\n        /* \"#utility.yul\":2160:2213   */\n      tag_129\n        /* \"#utility.yul\":2205:2212   */\n      dup6\n        /* \"#utility.yul\":2196:2202   */\n      dup3\n        /* \"#utility.yul\":2185:2194   */\n      dup7\n        /* \"#utility.yul\":2181:2203   */\n      add\n        /* \"#utility.yul\":2160:2213   */\n      tag_64\n      jump\t// in\n    tag_129:\n        /* \"#utility.yul\":2150:2213   */\n      swap3\n      pop\n        /* \"#utility.yul\":2106:2223   */\n      pop\n        /* \"#utility.yul\":2262:2264   */\n      0x20\n        /* \"#utility.yul\":2288:2341   */\n      tag_130\n        /* \"#utility.yul\":2333:2340   */\n      dup6\n        /* \"#utility.yul\":2324:2330   */\n      dup3\n        /* \"#utility.yul\":2313:2322   */\n      dup7\n        /* \"#utility.yul\":2309:2331   */\n      add\n        /* \"#utility.yul\":2288:2341   */\n      tag_68\n      jump\t// in\n    tag_130:\n        /* \"#utility.yul\":2278:2341   */\n      swap2\n      pop\n        /* \"#utility.yul\":2233:2351   */\n      pop\n        /* \"#utility.yul\":1884:2358   */\n      swap3\n      pop\n      swap3\n      swap1\n      pop\n      jump\t// out\n        /* \"#utility.yul\":2364:2463   */\n    tag_69:\n        /* \"#utility.yul\":2416:2422   */\n      0x00\n        /* \"#utility.yul\":2450:2455   */\n      dup2\n        /* \"#utility.yul\":2444:2456   */\n      mload\n        /* \"#utility.yul\":2434:2456   */\n      swap1\n      pop\n        /* \"#utility.yul\":2364:2463   */\n      swap2\n      swap1\n      pop\n      jump\t// out\n        /* \"#utility.yul\":2469:2638   */\n    tag_70:\n        /* \"#utility.yul\":2553:2564   */\n      0x00\n        /* \"#utility.yul\":2587:2593   */\n      dup3\n        /* \"#utility.yul\":2582:2585   */\n      dup3\n        /* \"#utility.yul\":2575:2594   */\n      mstore\n        /* \"#utility.yul\":2627:2631   */\n      0x20\n        /* \"#utility.yul\":2622:2625   */\n      dup3\n        /* \"#utility.yul\":2618:2632   */\n      add\n        /* \"#utility.yul\":2603:2632   */\n      swap1\n      pop\n        /* \"#utility.yul\":2469:2638   */\n      swap3\n      swap2\n      pop\n      pop\n      jump\t// out\n        /* \"#utility.yul\":2644:2890   */\n    tag_71:\n        /* \"#utility.yul\":2725:2726   */\n      0x00\n        /* \"#utility.yul\":2735:2848   */\n    tag_134:\n        /* \"#utility.yul\":2749:2755   */\n      dup4\n        /* \"#utility.yul\":2746:2747   */\n      dup2\n        /* \"#utility.yul\":2743:2756   */\n      lt\n        /* \"#utility.yul\":2735:2848   */\n      iszero\n      tag_136\n      jumpi\n        /* \"#utility.yul\":2834:2835   */\n      dup1\n        /* \"#utility.yul\":2829:2832   */\n      dup3\n        /* \"#utility.yul\":2825:2836   */\n      add\n        /* \"#utility.yul\":2819:2837   */\n      mload\n        /* \"#utility.yul\":2815:2816   */\n      dup2\n        /* \"#utility.yul\":2810:2813   */\n      dup5\n        /* \"#utility.yul\":2806:2817   */\n      add\n        /* \"#utility.yul\":2799:2838   */\n      mstore\n        /* \"#utility.yul\":2771:2773   */\n      0x20\n        /* \"#utility.yul\":2768:2769   */\n      dup2\n        /* \"#utility.yul\":2764:2774   */\n      add\n        /* \"#utility.yul\":2759:2774   */\n      swap1\n      pop\n        /* \"#utility.yul\":2735:2848   */\n      jump(tag_134)\n    tag_136:\n        /* \"#utility.yul\":2882:2883   */\n      0x00\n        /* \"#utility.yul\":2873:2879   */\n      dup5\n        /* \"#utility.yul\":2868:2871   */\n      dup5\n        /* \"#utility.yul\":2864:2880   */\n      add\n        /* \"#utility.yul\":2857:2884   */\n      mstore\n        /* \"#utility.yul\":2706:2890   */\n      pop\n        /* \"#utility.yul\":2644:2890   */\n      pop\n      pop\n      pop\n      jump\t// out\n        /* \"#utility.yul\":2896:2998   */\n    tag_72:\n        /* \"#utility.yul\":2937:2943   */\n      0x00\n        /* \"#utility.yul\":2988:2990   */\n      0x1f\n        /* \"#utility.yul\":2984:2991   */\n      not\n        /* \"#utility.yul\":2979:2981   */\n      0x1f\n        /* \"#utility.yul\":2972:2977   */\n      dup4\n        /* \"#utility.yul\":2968:2982   */\n      add\n        /* \"#utility.yul\":2964:2992   */\n      and\n        /* \"#utility.yul\":2954:2992   */\n      swap1\n      pop\n        /* \"#utility.yul\":2896:2998   */\n      swap2\n      swap1\n      pop\n      jump\t// out\n        /* \"#utility.yul\":3004:3381   */\n    tag_73:\n        /* \"#utility.yul\":3092:3095   */\n      0x00\n        /* \"#utility.yul\":3120:3159   */\n      tag_139\n        /* \"#utility.yul\":3153:3158   */\n      dup3\n        /* \"#utility.yul\":3120:3159   */\n      tag_69\n      jump\t// in\n    tag_139:\n        /* \"#utility.yul\":3175:3246   */\n      tag_140\n        /* \"#utility.yul\":3239:3245   */\n      dup2\n        /* \"#utility.yul\":3234:3237   */\n      dup6\n        /* \"#utility.yul\":3175:3246   */\n      tag_70\n      jump\t// in\n    tag_140:\n        /* \"#utility.yul\":3168:3246   */\n      swap4\n      pop\n        /* \"#utility.yul\":3255:3320   */\n      tag_141\n        /* \"#utility.yul\":3313:3319   */\n      dup2\n        /* \"#utility.yul\":3308:3311   */\n      dup6\n        /* \"#utility.yul\":3301:3305   */\n      0x20\n        /* \"#utility.yul\":3294:3299   */\n      dup7\n        /* \"#utility.yul\":3290:3306   */\n      add\n        /* \"#utility.yul\":3255:3320   */\n      tag_71\n      jump\t// in\n    tag_141:\n        /* \"#utility.yul\":3345:3374   */\n      tag_142\n        /* \"#utility.yul\":3367:3373   */\n      dup2\n        /* \"#utility.yul\":3345:3374   */\n      tag_72\n      jump\t// in\n    tag_142:\n        /* \"#utility.yul\":3340:3343   */\n      dup5\n        /* \"#utility.yul\":3336:3375   */\n      add\n        /* \"#utility.yul\":3329:3375   */\n      swap2\n      pop\n        /* \"#utility.yul\":3096:3381   */\n      pop\n        /* \"#utility.yul\":3004:3381   */\n      swap3\n      swap2\n      pop\n      pop\n      jump\t// out\n        /* \"#utility.yul\":3387:3700   */\n    tag_28:\n        /* \"#utility.yul\":3500:3504   */\n      0x00\n        /* \"#utility.yul\":3538:3540   */\n      0x20\n        /* \"#utility.yul\":3527:3536   */\n      dup3\n        /* \"#utility.yul\":3523:3541   */\n      add\n        /* \"#utility.yul\":3515:3541   */\n      swap1\n      pop\n        /* \"#utility.yul\":3587:3596   */\n      dup2\n        /* \"#utility.yul\":3581:3585   */\n      dup2\n        /* \"#utility.yul\":3577:3597   */\n      sub\n        /* \"#utility.yul\":3573:3574   */\n      0x00\n        /* \"#utility.yul\":3562:3571   */\n      dup4\n        /* \"#utility.yul\":3558:3575   */\n      add\n        /* \"#utility.yul\":3551:3598   */\n      mstore\n        /* \"#utility.yul\":3615:3693   */\n      tag_144\n        /* \"#utility.yul\":3688:3692   */\n      dup2\n        /* \"#utility.yul\":3679:3685   */\n      dup5\n        /* \"#utility.yul\":3615:3693   */\n      tag_73\n      jump\t// in\n    tag_144:\n        /* \"#utility.yul\":3607:3693   */\n      swap1\n      pop\n        /* \"#utility.yul\":3387:3700   */\n      swap3\n      swap2\n      pop\n      pop\n      jump\t// out\n        /* \"#utility.yul\":3706:3823   */\n    tag_74:\n        /* \"#utility.yul\":3815:3816   */\n      0x00\n        /* \"#utility.yul\":3812:3813   */\n      dup1\n        /* \"#utility.yul\":3805:3817   */\n      revert\n        /* \"#utility.yul\":3829:3946   */\n    tag_75:\n        /* \"#utility.yul\":3938:3939   */\n      0x00\n        /* \"#utility.yul\":3935:3936   */\n      dup1\n        /* \"#utility.yul\":3928:3940   */\n      revert\n        /* \"#utility.yul\":3952:4132   */\n    tag_76:\n        /* \"#utility.yul\":4000:4077   */\n      0x4e487b7100000000000000000000000000000000000000000000000000000000\n        /* \"#utility.yul\":3997:3998   */\n      0x00\n        /* \"#utility.yul\":3990:4078   */\n      mstore\n        /* \"#utility.yul\":4097:4101   */\n      0x41\n        /* \"#utility.yul\":4094:4095   */\n      0x04\n        /* \"#utility.yul\":4087:4102   */\n      mstore\n        /* \"#utility.yul\":4121:4125   */\n      0x24\n        /* \"#utility.yul\":4118:4119   */\n      0x00\n        /* \"#utility.yul\":4111:4126   */\n      revert\n        /* \"#utility.yul\":4138:4419   */\n    tag_77:\n        /* \"#utility.yul\":4221:4248   */\n      tag_149\n        /* \"#utility.yul\":4243:4247   */\n      dup3\n        /* \"#utility.yul\":4221:4248   */\n      tag_72\n      jump\t// in\n    tag_149:\n        /* \"#utility.yul\":4213:4219   */\n      dup2\n        /* \"#utility.yul\":4209:4249   */\n      add\n        /* \"#utility.yul\":4351:4357   */\n      dup2\n        /* \"#utility.yul\":4339:4349   */\n      dup2\n        /* \"#utility.yul\":4336:4358   */\n      lt\n        /* \"#utility.yul\":4315:4333   */\n      0xffffffffffffffff\n        /* \"#utility.yul\":4303:4313   */\n      dup3\n        /* \"#utility.yul\":4300:4334   */\n      gt\n        /* \"#utility.yul\":4297:4359   */\n      or\n        /* \"#utility.yul\":4294:4382   */\n      iszero\n      tag_150\n      jumpi\n        /* \"#utility.yul\":4362:4380   */\n      tag_151\n      tag_76\n      jump\t// in\n    tag_151:\n        /* \"#utility.yul\":4294:4382   */\n    tag_150:\n        /* \"#utility.yul\":4402:4412   */\n      dup1\n        /* \"#utility.yul\":4398:4400   */\n      0x40\n        /* \"#utility.yul\":4391:4413   */\n      mstore\n        /* \"#utility.yul\":4181:4419   */\n      pop\n        /* \"#utility.yul\":4138:4419   */\n      pop\n      pop\n      jump\t// out\n        /* \"#utility.yul\":4425:4554   */\n    tag_78:\n        /* \"#utility.yul\":4459:4465   */\n      0x00\n        /* \"#utility.yul\":4486:4506   */\n      tag_153\n      tag_58\n      jump\t// in\n    tag_153:\n        /* \"#utility.yul\":4476:4506   */\n      swap1\n      pop\n        /* \"#utility.yul\":4515:4548   */\n      tag_154\n        /* \"#utility.yul\":4543:4547   */\n      dup3\n        /* \"#utility.yul\":4535:4541   */\n      dup3\n        /* \"#utility.yul\":4515:4548   */\n      tag_77\n      jump\t// in\n    tag_154:\n        /* \"#utility.yul\":4425:4554   */\n      swap2\n      swap1\n      pop\n      jump\t// out\n        /* \"#utility.yul\":4560:4868   */\n    tag_79:\n        /* \"#utility.yul\":4622:4626   */\n      0x00\n        /* \"#utility.yul\":4712:4730   */\n      0xffffffffffffffff\n        /* \"#utility.yul\":4704:4710   */\n      dup3\n        /* \"#utility.yul\":4701:4731   */\n      gt\n        /* \"#utility.yul\":4698:4754   */\n      iszero\n      tag_156\n      jumpi\n        /* \"#utility.yul\":4734:4752   */\n      tag_157\n      tag_76\n      jump\t// in\n    tag_157:\n        /* \"#utility.yul\":4698:4754   */\n    tag_156:\n        /* \"#utility.yul\":4772:4801   */\n      tag_158\n        /* \"#utility.yul\":4794:4800   */\n      dup3\n        /* \"#utility.yul\":4772:4801   */\n      tag_72\n      jump\t// in\n    tag_158:\n        /* \"#utility.yul\":4764:4801   */\n      swap1\n      pop\n        /* \"#utility.yul\":4856:4860   */\n      0x20\n        /* \"#utility.yul\":4850:4854   */\n      dup2\n        /* \"#utility.yul\":4846:4861   */\n      add\n        /* \"#utility.yul\":4838:4861   */\n      swap1\n      pop\n        /* \"#utility.yul\":4560:4868   */\n      swap2\n      swap1\n      pop\n      jump\t// out\n        /* \"#utility.yul\":4874:5020   */\n    tag_80:\n        /* \"#utility.yul\":4971:4977   */\n      dup3\n        /* \"#utility.yul\":4966:4969   */\n      dup2\n        /* \"#utility.yul\":4961:4964   */\n      dup4\n        /* \"#utility.yul\":4948:4978   */\n      calldatacopy\n        /* \"#utility.yul\":5012:5013   */\n      0x00\n        /* \"#utility.yul\":5003:5009   */\n      dup4\n        /* \"#utility.yul\":4998:5001   */\n      dup4\n        /* \"#utility.yul\":4994:5010   */\n      add\n        /* \"#utility.yul\":4987:5014   */\n      mstore\n        /* \"#utility.yul\":4874:5020   */\n      pop\n      pop\n      pop\n      jump\t// out\n        /* \"#utility.yul\":5026:5451   */\n    tag_81:\n        /* \"#utility.yul\":5104:5109   */\n      0x00\n        /* \"#utility.yul\":5129:5195   */\n      tag_161\n        /* \"#utility.yul\":5145:5194   */\n      tag_162\n        /* \"#utility.yul\":5187:5193   */\n      dup5\n        /* \"#utility.yul\":5145:5194   */\n      tag_79\n      jump\t// in\n    tag_162:\n        /* \"#utility.yul\":5129:5195   */\n      tag_78\n      jump\t// in\n    tag_161:\n        /* \"#utility.yul\":5120:5195   */\n      swap1\n      pop\n        /* \"#utility.yul\":5218:5224   */\n      dup3\n        /* \"#utility.yul\":5211:5216   */\n      dup2\n        /* \"#utility.yul\":5204:5225   */\n      mstore\n        /* \"#utility.yul\":5256:5260   */\n      0x20\n        /* \"#utility.yul\":5249:5254   */\n      dup2\n        /* \"#utility.yul\":5245:5261   */\n      add\n        /* \"#utility.yul\":5294:5297   */\n      dup5\n        /* \"#utility.yul\":5285:5291   */\n      dup5\n        /* \"#utility.yul\":5280:5283   */\n      dup5\n        /* \"#utility.yul\":5276:5292   */\n      add\n        /* \"#utility.yul\":5273:5298   */\n      gt\n        /* \"#utility.yul\":5270:5382   */\n      iszero\n      tag_163\n      jumpi\n        /* \"#utility.yul\":5301:5380   */\n      tag_164\n      tag_75\n      jump\t// in\n    tag_164:\n        /* \"#utility.yul\":5270:5382   */\n    tag_163:\n        /* \"#utility.yul\":5391:5445   */\n      tag_165\n        /* \"#utility.yul\":5438:5444   */\n      dup5\n        /* \"#utility.yul\":5433:5436   */\n      dup3\n        /* \"#utility.yul\":5428:5431   */\n      dup6\n        /* \"#utility.yul\":5391:5445   */\n      tag_80\n      jump\t// in\n    tag_165:\n        /* \"#utility.yul\":5110:5451   */\n      pop\n        /* \"#utility.yul\":5026:5451   */\n      swap4\n      swap3\n      pop\n      pop\n      pop\n      jump\t// out\n        /* \"#utility.yul\":5471:5811   */\n    tag_82:\n        /* \"#utility.yul\":5527:5532   */\n      0x00\n        /* \"#utility.yul\":5576:5579   */\n      dup3\n        /* \"#utility.yul\":5569:5573   */\n      0x1f\n        /* \"#utility.yul\":5561:5567   */\n      dup4\n        /* \"#utility.yul\":5557:5574   */\n      add\n        /* \"#utility.yul\":5553:5580   */\n      slt\n        /* \"#utility.yul\":5543:5665   */\n      tag_167\n      jumpi\n        /* \"#utility.yul\":5584:5663   */\n      tag_168\n      tag_74\n      jump\t// in\n    tag_168:\n        /* \"#utility.yul\":5543:5665   */\n    tag_167:\n        /* \"#utility.yul\":5701:5707   */\n      dup2\n        /* \"#utility.yul\":5688:5708   */\n      calldataload\n        /* \"#utility.yul\":5726:5805   */\n      tag_169\n        /* \"#utility.yul\":5801:5804   */\n      dup5\n        /* \"#utility.yul\":5793:5799   */\n      dup3\n        /* \"#utility.yul\":5786:5790   */\n      0x20\n        /* \"#utility.yul\":5778:5784   */\n      dup7\n        /* \"#utility.yul\":5774:5791   */\n      add\n        /* \"#utility.yul\":5726:5805   */\n      tag_81\n      jump\t// in\n    tag_169:\n        /* \"#utility.yul\":5717:5805   */\n      swap2\n      pop\n        /* \"#utility.yul\":5533:5811   */\n      pop\n        /* \"#utility.yul\":5471:5811   */\n      swap3\n      swap2\n      pop\n      pop\n      jump\t// out\n        /* \"#utility.yul\":5817:6326   */\n    tag_32:\n        /* \"#utility.yul\":5886:5892   */\n      0x00\n        /* \"#utility.yul\":5935:5937   */\n      0x20\n        /* \"#utility.yul\":5923:5932   */\n      dup3\n        /* \"#utility.yul\":5914:5921   */\n      dup5\n        /* \"#utility.yul\":5910:5933   */\n      sub\n        /* \"#utility.yul\":5906:5938   */\n      slt\n        /* \"#utility.yul\":5903:6022   */\n      iszero\n      tag_171\n      jumpi\n        /* \"#utility.yul\":5941:6020   */\n      tag_172\n      tag_59\n      jump\t// in\n    tag_172:\n        /* \"#utility.yul\":5903:6022   */\n    tag_171:\n        /* \"#utility.yul\":6089:6090   */\n      0x00\n        /* \"#utility.yul\":6078:6087   */\n      dup3\n        /* \"#utility.yul\":6074:6091   */\n      add\n        /* \"#utility.yul\":6061:6092   */\n      calldataload\n        /* \"#utility.yul\":6119:6137   */\n      0xffffffffffffffff\n        /* \"#utility.yul\":6111:6117   */\n      dup2\n        /* \"#utility.yul\":6108:6138   */\n      gt\n        /* \"#utility.yul\":6105:6222   */\n      iszero\n      tag_173\n      jumpi\n        /* \"#utility.yul\":6141:6220   */\n      tag_174\n      tag_60\n      jump\t// in\n    tag_174:\n        /* \"#utility.yul\":6105:6222   */\n    tag_173:\n        /* \"#utility.yul\":6246:6309   */\n      tag_175\n        /* \"#utility.yul\":6301:6308   */\n      dup5\n        /* \"#utility.yul\":6292:6298   */\n      dup3\n        /* \"#utility.yul\":6281:6290   */\n      dup6\n        /* \"#utility.yul\":6277:6299   */\n      add\n        /* \"#utility.yul\":6246:6309   */\n      tag_82\n      jump\t// in\n    tag_175:\n        /* \"#utility.yul\":6236:6309   */\n      swap2\n      pop\n        /* \"#utility.yul\":6032:6319   */\n      pop\n        /* \"#utility.yul\":5817:6326   */\n      swap3\n      swap2\n      pop\n      pop\n      jump\t// out\n        /* \"#utility.yul\":6332:6450   */\n    tag_83:\n        /* \"#utility.yul\":6419:6443   */\n      tag_177\n        /* \"#utility.yul\":6437:6442   */\n      dup2\n        /* \"#utility.yul\":6419:6443   */\n      tag_62\n      jump\t// in\n    tag_177:\n        /* \"#utility.yul\":6414:6417   */\n      dup3\n        /* \"#utility.yul\":6407:6444   */\n      mstore\n        /* \"#utility.yul\":6332:6450   */\n      pop\n      pop\n      jump\t// out\n        /* \"#utility.yul\":6456:6678   */\n    tag_43:\n        /* \"#utility.yul\":6549:6553   */\n      0x00\n        /* \"#utility.yul\":6587:6589   */\n      0x20\n        /* \"#utility.yul\":6576:6585   */\n      dup3\n        /* \"#utility.yul\":6572:6590   */\n      add\n        /* \"#utility.yul\":6564:6590   */\n      swap1\n      pop\n        /* \"#utility.yul\":6600:6671   */\n      tag_179\n        /* \"#utility.yul\":6668:6669   */\n      0x00\n        /* \"#utility.yul\":6657:6666   */\n      dup4\n        /* \"#utility.yul\":6653:6670   */\n      add\n        /* \"#utility.yul\":6644:6650   */\n      dup5\n        /* \"#utility.yul\":6600:6671   */\n      tag_83\n      jump\t// in\n    tag_179:\n        /* \"#utility.yul\":6456:6678   */\n      swap3\n      swap2\n      pop\n      pop\n      jump\t// out\n        /* \"#utility.yul\":6684:6864   */\n    tag_84:\n        /* \"#utility.yul\":6732:6809   */\n      0x4e487b7100000000000000000000000000000000000000000000000000000000\n        /* \"#utility.yul\":6729:6730   */\n      0x00\n        /* \"#utility.yul\":6722:6810   */\n      mstore\n        /* \"#utility.yul\":6829:6833   */\n      0x22\n        /* \"#utility.yul\":6826:6827   */\n      0x04\n        /* \"#utility.yul\":6819:6834   */\n      mstore\n        /* \"#utility.yul\":6853:6857   */\n      0x24\n        /* \"#utility.yul\":6850:6851   */\n      0x00\n        /* \"#utility.yul\":6843:6858   */\n      revert\n        /* \"#utility.yul\":6870:7190   */\n    tag_50:\n        /* \"#utility.yul\":6914:6920   */\n      0x00\n        /* \"#utility.yul\":6951:6952   */\n      0x02\n        /* \"#utility.yul\":6945:6949   */\n      dup3\n        /* \"#utility.yul\":6941:6953   */\n      div\n        /* \"#utility.yul\":6931:6953   */\n      swap1\n      pop\n        /* \"#utility.yul\":6998:6999   */\n      0x01\n        /* \"#utility.yul\":6992:6996   */\n      dup3\n        /* \"#utility.yul\":6988:7000   */\n      and\n        /* \"#utility.yul\":7019:7037   */\n      dup1\n        /* \"#utility.yul\":7009:7090   */\n      tag_182\n      jumpi\n        /* \"#utility.yul\":7075:7079   */\n      0x7f\n        /* \"#utility.yul\":7067:7073   */\n      dup3\n        /* \"#utility.yul\":7063:7080   */\n      and\n        /* \"#utility.yul\":7053:7080   */\n      swap2\n      pop\n        /* \"#utility.yul\":7009:7090   */\n    tag_182:\n        /* \"#utility.yul\":7137:7139   */\n      0x20\n        /* \"#utility.yul\":7129:7135   */\n      dup3\n        /* \"#utility.yul\":7126:7140   */\n      lt\n        /* \"#utility.yul\":7106:7124   */\n      dup2\n        /* \"#utility.yul\":7103:7141   */\n      sub\n        /* \"#utility.yul\":7100:7184   */\n      tag_183\n      jumpi\n        /* \"#utility.yul\":7156:7174   */\n      tag_184\n      tag_84\n      jump\t// in\n    tag_184:\n        /* \"#utility.yul\":7100:7184   */\n    tag_183:\n        /* \"#utility.yul\":6921:7190   */\n      pop\n        /* \"#utility.yul\":6870:7190   */\n      swap2\n      swap1\n      pop\n      jump\t// out\n        /* \"#utility.yul\":7196:7337   */\n    tag_85:\n        /* \"#utility.yul\":7245:7249   */\n      0x00\n        /* \"#utility.yul\":7268:7271   */\n      dup2\n        /* \"#utility.yul\":7260:7271   */\n      swap1\n      pop\n        /* \"#utility.yul\":7291:7294   */\n      dup2\n        /* \"#utility.yul\":7288:7289   */\n      0x00\n        /* \"#utility.yul\":7281:7295   */\n      mstore\n        /* \"#utility.yul\":7325:7329   */\n      0x20\n        /* \"#utility.yul\":7322:7323   */\n      0x00\n        /* \"#utility.yul\":7312:7330   */\n      keccak256\n        /* \"#utility.yul\":7304:7330   */\n      swap1\n      pop\n        /* \"#utility.yul\":7196:7337   */\n      swap2\n      swap1\n      pop\n      jump\t// out\n        /* \"#utility.yul\":7343:7436   */\n    tag_86:\n        /* \"#utility.yul\":7380:7386   */\n      0x00\n        /* \"#utility.yul\":7427:7429   */\n      0x20\n        /* \"#utility.yul\":7422:7424   */\n      0x1f\n        /* \"#utility.yul\":7415:7420   */\n      dup4\n        /* \"#utility.yul\":7411:7425   */\n      add\n        /* \"#utility.yul\":7407:7430   */\n      div\n        /* \"#utility.yul\":7397:7430   */\n      swap1\n      pop\n        /* \"#utility.yul\":7343:7436   */\n      swap2\n      swap1\n      pop\n      jump\t// out\n        /* \"#utility.yul\":7442:7549   */\n    tag_87:\n        /* \"#utility.yul\":7486:7494   */\n      0x00\n        /* \"#utility.yul\":7536:7541   */\n      dup3\n        /* \"#utility.yul\":7530:7534   */\n      dup3\n        /* \"#utility.yul\":7526:7542   */\n      shl\n        /* \"#utility.yul\":7505:7542   */\n      swap1\n      pop\n        /* \"#utility.yul\":7442:7549   */\n      swap3\n      swap2\n      pop\n      pop\n      jump\t// out\n        /* \"#utility.yul\":7555:7948   */\n    tag_88:\n        /* \"#utility.yul\":7624:7630   */\n      0x00\n        /* \"#utility.yul\":7674:7675   */\n      0x08\n        /* \"#utility.yul\":7662:7672   */\n      dup4\n        /* \"#utility.yul\":7658:7676   */\n      mul\n        /* \"#utility.yul\":7697:7794   */\n      tag_189\n        /* \"#utility.yul\":7727:7793   */\n      0xffffffffffffffffffffffffffffffffffffffffffffffffffffffffffffffff\n        /* \"#utility.yul\":7716:7725   */\n      dup3\n        /* \"#utility.yul\":7697:7794   */\n      tag_87\n      jump\t// in\n    tag_189:\n        /* \"#utility.yul\":7815:7854   */\n      tag_190\n        /* \"#utility.yul\":7845:7853   */\n      dup7\n        /* \"#utility.yul\":7834:7843   */\n      dup4\n        /* \"#utility.yul\":7815:7854   */\n      tag_87\n      jump\t// in\n    tag_190:\n        /* \"#utility.yul\":7803:7854   */\n      swap6\n      pop\n        /* \"#utility.yul\":7887:7891   */\n      dup1\n        /* \"#utility.yul\":7883:7892   */\n      not\n        /* \"#utility.yul\":7876:7881   */\n      dup5\n        /* \"#utility.yul\":7872:7893   */\n      and\n        /* \"#utility.yul\":7863:7893   */\n      swap4\n      pop\n        /* \"#utility.yul\":7936:7940   */\n      dup1\n        /* \"#utility.yul\":7926:7934   */\n      dup7\n        /* \"#utility.yul\":7922:7941   */\n      and\n        /* \"#utility.yul\":7915:7920   */\n      dup5\n        /* \"#utility.yul\":7912:7942   */\n      or\n        /* \"#utility.yul\":7902:7942   */\n      swap3\n      pop\n        /* \"#utility.yul\":7631:7948   */\n      pop\n      pop\n        /* \"#utility.yul\":7555:7948   */\n      swap4\n      swap3\n      pop\n      pop\n      pop\n      jump\t// out\n        /* \"#utility.yul\":7954:8014   */\n    tag_89:\n        /* \"#utility.yul\":7982:7985   */\n      0x00\n        /* \"#utility.yul\":8003:8008   */\n      dup2\n        /* \"#utility.yul\":7996:8008   */\n      swap1\n      pop\n        /* \"#utility.yul\":7954:8014   */\n      swap2\n      swap1\n      pop\n      jump\t// out\n        /* \"#utility.yul\":8020:8162   */\n    tag_90:\n        /* \"#utility.yul\":8070:8079   */\n      0x00\n        /* \"#utility.yul\":8103:8156   */\n      tag_193\n        /* \"#utility.yul\":8121:8155   */\n      tag_194\n        /* \"#utility.yul\":8130:8154   */\n      tag_195\n        /* \"#utility.yul\":8148:8153   */\n      dup5\n        /* \"#utility.yul\":8130:8154   */\n      tag_65\n      jump\t// in\n    tag_195:\n        /* \"#utility.yul\":8121:8155   */\n      tag_89\n      jump\t// in\n    tag_194:\n        /* \"#utility.yul\":8103:8156   */\n      tag_65\n      jump\t// in\n    tag_193:\n        /* \"#utility.yul\":8090:8156   */\n      swap1\n      pop\n        /* \"#utility.yul\":8020:8162   */\n      swap2\n      swap1\n      pop\n      jump\t// out\n        /* \"#utility.yul\":8168:8243   */\n    tag_91:\n        /* \"#utility.yul\":8211:8214   */\n      0x00\n        /* \"#utility.yul\":8232:8237   */\n      dup2\n        /* \"#utility.yul\":8225:8237   */\n      swap1\n      pop\n        /* \"#utility.yul\":8168:8243   */\n      swap2\n      swap1\n      pop\n      jump\t// out\n        /* \"#utility.yul\":8249:8518   */\n    tag_92:\n        /* \"#utility.yul\":8359:8398   */\n      tag_198\n        /* \"#utility.yul\":8390:8397   */\n      dup4\n        /* \"#utility.yul\":8359:8398   */\n      tag_90\n      jump\t// in\n    tag_198:\n        /* \"#utility.yul\":8420:8511   */\n      tag_199\n        /* \"#utility.yul\":8469:8510   */\n      tag_200\n        /* \"#utility.yul\":8493:8509   */\n      dup3\n        /* \"#utility.yul\":8469:8510   */\n      tag_91\n      jump\t// in\n    tag_200:\n        /* \"#utility.yul\":8461:8467   */\n      dup5\n        /* \"#utility.yul\":8454:8458   */\n      dup5\n        /* \"#utility.yul\":8448:8459   */\n      sload\n        /* \"#utility.yul\":8420:8511   */\n      tag_88\n      jump\t// in\n    tag_199:\n        /* \"#utility.yul\":8414:8418   */\n      dup3\n        /* \"#utility.yul\":8407:8512   */\n      sstore\n        /* \"#utility.yul\":8325:8518   */\n      pop\n        /* \"#utility.yul\":8249:8518   */\n      pop\n      pop\n      pop\n      jump\t// out\n        /* \"#utility.yul\":8524:8597   */\n    tag_93:\n        /* \"#utility.yul\":8569:8572   */\n      0x00\n        /* \"#utility.yul\":8524:8597   */\n      swap1\n      jump\t// out\n        /* \"#utility.yul\":8603:8792   */\n    tag_94:\n        /* \"#utility.yul\":8680:8712   */\n      tag_203\n      tag_93\n      jump\t// in\n    tag_203:\n        /* \"#utility.yul\":8721:8786   */\n      tag_204\n        /* \"#utility.yul\":8779:8785   */\n      dup2\n        /* \"#utility.yul\":8771:8777   */\n      dup5\n        /* \"#utility.yul\":8765:8769   */\n      dup5\n        /* \"#utility.yul\":8721:8786   */\n      tag_92\n      jump\t// in\n    tag_204:\n        /* \"#utility.yul\":8656:8792   */\n      pop\n        /* \"#utility.yul\":8603:8792   */\n      pop\n      pop\n      jump\t// out\n        /* \"#utility.yul\":8798:8984   */\n    tag_95:\n        /* \"#utility.yul\":8858:8978   */\n    tag_206:\n        /* \"#utility.yul\":8875:8878   */\n      dup2\n        /* \"#utility.yul\":8868:8873   */\n      dup2\n        /* \"#utility.yul\":8865:8879   */\n      lt\n        /* \"#utility.yul\":8858:8978   */\n      iszero\n      tag_208\n      jumpi\n        /* \"#utility.yul\":8929:8968   */\n      tag_209\n        /* \"#utility.yul\":8966:8967   */\n      0x00\n        /* \"#utility.yul\":8959:8964   */\n      dup3\n        /* \"#utility.yul\":8929:8968   */\n      tag_94\n      jump\t// in\n    tag_209:\n        /* \"#utility.yul\":8902:8903   */\n      0x01\n        /* \"#utility.yul\":8895:8900   */\n      dup2\n        /* \"#utility.yul\":8891:8904   */\n      add\n        /* \"#utility.yul\":8882:8904   */\n      swap1\n      pop\n        /* \"#utility.yul\":8858:8978   */\n      jump(tag_206)\n    tag_208:\n        /* \"#utility.yul\":8798:8984   */\n      pop\n      pop\n      jump\t// out\n        /* \"#utility.yul\":8990:9533   */\n    tag_96:\n        /* \"#utility.yul\":9091:9093   */\n      0x1f\n        /* \"#utility.yul\":9086:9089   */\n      dup3\n        /* \"#utility.yul\":9083:9094   */\n      gt\n        /* \"#utility.yul\":9080:9526   */\n      iszero\n      tag_211\n      jumpi\n        /* \"#utility.yul\":9125:9163   */\n      tag_212\n        /* \"#utility.yul\":9157:9162   */\n      dup2\n        /* \"#utility.yul\":9125:9163   */\n      tag_85\n      jump\t// in\n    tag_212:\n        /* \"#utility.yul\":9209:9238   */\n      tag_213\n        /* \"#utility.yul\":9227:9237   */\n      dup5\n        /* \"#utility.yul\":9209:9238   */\n      tag_86\n      jump\t// in\n    tag_213:\n        /* \"#utility.yul\":9199:9207   */\n      dup2\n        /* \"#utility.yul\":9195:9239   */\n      add\n        /* \"#utility.yul\":9392:9394   */\n      0x20\n        /* \"#utility.yul\":9380:9390   */\n      dup6\n        /* \"#utility.yul\":9377:9395   */\n      lt\n        /* \"#utility.yul\":9374:9423   */\n      iszero\n      tag_214\n      jumpi\n        /* \"#utility.yul\":9413:9421   */\n      dup2\n        /* \"#utility.yul\":9398:9421   */\n      swap1\n      pop\n        /* \"#utility.yul\":9374:9423   */\n    tag_214:\n        /* \"#utility.yul\":9436:9516   */\n      tag_215\n        /* \"#utility.yul\":9492:9514   */\n      tag_216\n        /* \"#utility.yul\":9510:9513   */\n      dup6\n        /* \"#utility.yul\":9492:9514   */\n      tag_86\n      jump\t// in\n    tag_216:\n        /* \"#utility.yul\":9482:9490   */\n      dup4\n        /* \"#utility.yul\":9478:9515   */\n      add\n        /* \"#utility.yul\":9465:9476   */\n      dup3\n        /* \"#utility.yul\":9436:9516   */\n      tag_95\n      jump\t// in\n    tag_215:\n        /* \"#utility.yul\":9095:9526   */\n      pop\n      pop\n        /* \"#utility.yul\":9080:9526   */\n    tag_211:\n        /* \"#utility.yul\":8990:9533   */\n      pop\n      pop\n      pop\n      jump\t// out\n        /* \"#utility.yul\":9539:9656   */\n    tag_97:\n        /* \"#utility.yul\":9593:9601   */\n      0x00\n        /* \"#utility.yul\":9643:9648   */\n      dup3\n        /* \"#utility.yul\":9637:9641   */\n      dup3\n        /* \"#utility.yul\":9633:9649   */\n      shr\n        /* \"#utility.yul\":9612:9649   */\n      swap1\n      pop\n        /* \"#utility.yul\":9539:9656   */\n      swap3\n      swap2\n      pop\n      pop\n      jump\t// out\n        /* \"#utility.yul\":9662:9831   */\n    tag_98:\n        /* \"#utility.yul\":9706:9712   */\n      0x00\n        /* \"#utility.yul\":9739:9790   */\n      tag_219\n        /* \"#utility.yul\":9787:9788   */\n      0x00\n        /* \"#utility.yul\":9783:9789   */\n      not\n        /* \"#utility.yul\":9775:9780   */\n      dup5\n        /* \"#utility.yul\":9772:9773   */\n      0x08\n        /* \"#utility.yul\":9768:9781   */\n      mul\n        /* \"#utility.yul\":9739:9790   */\n      tag_97\n      jump\t// in\n    tag_219:\n        /* \"#utility.yul\":9735:9791   */\n      not\n        /* \"#utility.yul\":9820:9824   */\n      dup1\n        /* \"#utility.yul\":9814:9818   */\n      dup4\n        /* \"#utility.yul\":9810:9825   */\n      and\n        /* \"#utility.yul\":9800:9825   */\n      swap2\n      pop\n        /* \"#utility.yul\":9713:9831   */\n      pop\n        /* \"#utility.yul\":9662:9831   */\n      swap3\n      swap2\n      pop\n      pop\n      jump\t// out\n        /* \"#utility.yul\":9836:10131   */\n    tag_99:\n        /* \"#utility.yul\":9912:9916   */\n      0x00\n        /* \"#utility.yul\":10058:10087   */\n      tag_221\n        /* \"#utility.yul\":10083:10086   */\n      dup4\n        /* \"#utility.yul\":10077:10081   */\n      dup4\n        /* \"#utility.yul\":10058:10087   */\n      tag_98\n      jump\t// in\n    tag_221:\n        /* \"#utility.yul\":10050:10087   */\n      swap2\n      pop\n        /* \"#utility.yul\":10120:10123   */\n      dup3\n        /* \"#utility.yul\":10117:10118   */\n      0x02\n        /* \"#utility.yul\":10113:10124   */\n      mul\n        /* \"#utility.yul\":10107:10111   */\n      dup3\n        /* \"#utility.yul\":10104:10125   */\n      or\n        /* \"#utility.yul\":10096:10125   */\n      swap1\n      pop\n        /* \"#utility.yul\":9836:10131   */\n      swap3\n      swap2\n      pop\n      pop\n      jump\t// out\n        /* \"#utility.yul\":10136:11531   */\n    tag_57:\n        /* \"#utility.yul\":10253:10290   */\n      tag_223\n        /* \"#utility.yul\":10286:10289   */\n      dup3\n        /* \"#utility.yul\":10253:10290   */\n      tag_69\n      jump\t// in\n    tag_223:\n        /* \"#utility.yul\":10355:10373   */\n      0xffffffffffffffff\n        /* \"#utility.yul\":10347:10353   */\n      dup2\n        /* \"#utility.yul\":10344:10374   */\n      gt\n        /* \"#utility.yul\":10341:10397   */\n      iszero\n      tag_224\n      jumpi\n        /* \"#utility.yul\":10377:10395   */\n      tag_225\n      tag_76\n      jump\t// in\n    tag_225:\n        /* \"#utility.yul\":10341:10397   */\n    tag_224:\n        /* \"#utility.yul\":10421:10459   */\n      tag_226\n        /* \"#utility.yul\":10453:10457   */\n      dup3\n        /* \"#utility.yul\":10447:10458   */\n      sload\n        /* \"#utility.yul\":10421:10459   */\n      tag_50\n      jump\t// in\n    tag_226:\n        /* \"#utility.yul\":10506:10573   */\n      tag_227\n        /* \"#utility.yul\":10566:10572   */\n      dup3\n        /* \"#utility.yul\":10558:10564   */\n      dup3\n        /* \"#utility.yul\":10552:10556   */\n      dup6\n        /* \"#utility.yul\":10506:10573   */\n      tag_96\n      jump\t// in\n    tag_227:\n        /* \"#utility.yul\":10600:10601   */\n      0x00\n        /* \"#utility.yul\":10624:10628   */\n      0x20\n        /* \"#utility.yul\":10611:10628   */\n      swap1\n      pop\n        /* \"#utility.yul\":10656:10658   */\n      0x1f\n        /* \"#utility.yul\":10648:10654   */\n      dup4\n        /* \"#utility.yul\":10645:10659   */\n      gt\n        /* \"#utility.yul\":10673:10674   */\n      0x01\n        /* \"#utility.yul\":10668:11286   */\n      dup2\n      eq\n      tag_229\n      jumpi\n        /* \"#utility.yul\":11330:11331   */\n      0x00\n        /* \"#utility.yul\":11347:11353   */\n      dup5\n        /* \"#utility.yul\":11344:11421   */\n      iszero\n      tag_230\n      jumpi\n        /* \"#utility.yul\":11396:11405   */\n      dup3\n        /* \"#utility.yul\":11391:11394   */\n      dup8\n        /* \"#utility.yul\":11387:11406   */\n      add\n        /* \"#utility.yul\":11381:11407   */\n      mload\n        /* \"#utility.yul\":11372:11407   */\n      swap1\n      pop\n        /* \"#utility.yul\":11344:11421   */\n    tag_230:\n        /* \"#utility.yul\":11447:11514   */\n      tag_231\n        /* \"#utility.yul\":11507:11513   */\n      dup6\n        /* \"#utility.yul\":11500:11505   */\n      dup3\n        /* \"#utility.yul\":11447:11514   */\n      tag_99\n      jump\t// in\n    tag_231:\n        /* \"#utility.yul\":11441:11445   */\n      dup7\n        /* \"#utility.yul\":11434:11515   */\n      sstore\n        /* \"#utility.yul\":11303:11525   */\n      pop\n        /* \"#utility.yul\":10638:11525   */\n      jump(tag_228)\n        /* \"#utility.yul\":10668:11286   */\n    tag_229:\n        /* \"#utility.yul\":10720:10724   */\n      0x1f\n        /* \"#utility.yul\":10716:10725   */\n      not\n        /* \"#utility.yul\":10708:10714   */\n      dup5\n        /* \"#utility.yul\":10704:10726   */\n      and\n        /* \"#utility.yul\":10754:10791   */\n      tag_232\n        /* \"#utility.yul\":10786:10790   */\n      dup7\n        /* \"#utility.yul\":10754:10791   */\n      tag_85\n      jump\t// in\n    tag_232:\n        /* \"#utility.yul\":10813:10814   */\n      0x00\n        /* \"#utility.yul\":10827:11035   */\n    tag_233:\n        /* \"#utility.yul\":10841:10848   */\n      dup3\n        /* \"#utility.yul\":10838:10839   */\n      dup2\n        /* \"#utility.yul\":10835:10849   */\n      lt\n        /* \"#utility.yul\":10827:11035   */\n      iszero\n      tag_235\n      jumpi\n        /* \"#utility.yul\":10920:10929   */\n      dup5\n        /* \"#utility.yul\":10915:10918   */\n      dup10\n        /* \"#utility.yul\":10911:10930   */\n      add\n        /* \"#utility.yul\":10905:10931   */\n      mload\n        /* \"#utility.yul\":10897:10903   */\n      dup3\n        /* \"#utility.yul\":10890:10932   */\n      sstore\n        /* \"#utility.yul\":10971:10972   */\n      0x01\n        /* \"#utility.yul\":10963:10969   */\n      dup3\n        /* \"#utility.yul\":10959:10973   */\n      add\n        /* \"#utility.yul\":10949:10973   */\n      swap2\n      pop\n        /* \"#utility.yul\":11018:11020   */\n      0x20\n        /* \"#utility.yul\":11007:11016   */\n      dup6\n        /* \"#utility.yul\":11003:11021   */\n      add\n        /* \"#utility.yul\":10990:11021   */\n      swap5\n      pop\n        /* \"#utility.yul\":10864:10868   */\n      0x20\n        /* \"#utility.yul\":10861:10862   */\n      dup2\n        /* \"#utility.yul\":10857:10869   */\n      add\n        /* \"#utility.yul\":10852:10869   */\n      swap1\n      pop\n        /* \"#utility.yul\":10827:11035   */\n      jump(tag_233)\n    tag_235:\n        /* \"#utility.yul\":11063:11069   */\n      dup7\n        /* \"#utility.yul\":11054:11061   */\n      dup4\n        /* \"#utility.yul\":11051:11070   */\n      lt\n        /* \"#utility.yul\":11048:11227   */\n      iszero\n      tag_236\n      jumpi\n        /* \"#utility.yul\":11121:11130   */\n      dup5\n        /* \"#utility.yul\":11116:11119   */\n      dup10\n        /* \"#utility.yul\":11112:11131   */\n      add\n        /* \"#utility.yul\":11106:11132   */\n      mload\n        /* \"#utility.yul\":11164:11212   */\n      tag_237\n        /* \"#utility.yul\":11206:11210   */\n      0x1f\n        /* \"#utility.yul\":11198:11204   */\n      dup10\n        /* \"#utility.yul\":11194:11211   */\n      and\n        /* \"#utility.yul\":11183:11192   */\n      dup3\n        /* \"#utility.yul\":11164:11212   */\n      tag_98\n      jump\t// in\n    tag_237:\n        /* \"#utility.yul\":11156:11162   */\n      dup4\n        /* \"#utility.yul\":11149:11213   */\n      sstore\n        /* \"#utility.yul\":11071:11227   */\n      pop\n        /* \"#utility.yul\":11048:11227   */\n    tag_236:\n        /* \"#utility.yul\":11273:11274   */\n      0x01\n        /* \"#utility.yul\":11269:11270   */\n      0x02\n        /* \"#utility.yul\":11261:11267   */\n      dup9\n        /* \"#utility.yul\":11257:11271   */\n      mul\n        /* \"#utility.yul\":11253:11275   */\n      add\n        /* \"#utility.yul\":11247:11251   */\n      dup9\n        /* \"#utility.yul\":11240:11276   */\n      sstore\n        /* \"#utility.yul\":10675:11286   */\n      pop\n      pop\n      pop\n        /* \"#utility.yul\":10638:11525   */\n    tag_228:\n      pop\n        /* \"#utility.yul\":10228:11531   */\n      pop\n      pop\n      pop\n        /* \"#utility.yul\":10136:11531   */\n      pop\n      pop\n      jump\t// out\n\n    auxdata: 0xa264697066735822122052f735a99ad2b002dd97f82da31fbddf0fe527d73c35a3fc5affac589558b99864736f6c63430008120033\n}\n",
				"bytecode": {
					"linkReferences": {},
					"object": "6080604052735b38da6a701c568545dcfcb03fcb875f56beddc4600160006101000a81548173ffffffffffffffffffffffffffffffffffffffff021916908373ffffffffffffffffffffffffffffffffffffffff1602179055506040518060400160405280600481526020017f7465737400000000000000000000000000000000000000000000000000000000815250600290816200009f91906200032e565b50348015620000ad57600080fd5b5062000415565b600081519050919050565b7f4e487b7100000000000000000000000000000000000000000000000000000000600052604160045260246000fd5b7f4e487b7100000000000000000000000000000000000000000000000000000000600052602260045260246000fd5b600060028204905060018216806200013657607f821691505b6020821081036200014c576200014b620000ee565b5b50919050565b60008190508160005260206000209050919050565b60006020601f8301049050919050565b600082821b905092915050565b600060088302620001b67fffffffffffffffffffffffffffffffffffffffffffffffffffffffffffffffff8262000177565b620001c2868362000177565b95508019841693508086168417925050509392505050565b6000819050919050565b6000819050919050565b60006200020f620002096200020384620001da565b620001e4565b620001da565b9050919050565b6000819050919050565b6200022b83620001ee565b620002436200023a8262000216565b84845462000184565b825550505050565b600090565b6200025a6200024b565b6200026781848462000220565b505050565b5b818110156200028f576200028360008262000250565b6001810190506200026d565b5050565b601f821115620002de57620002a88162000152565b620002b38462000167565b81016020851015620002c3578190505b620002db620002d28562000167565b8301826200026c565b50505b505050565b600082821c905092915050565b60006200030360001984600802620002e3565b1980831691505092915050565b60006200031e8383620002f0565b9150826002028217905092915050565b6200033982620000b4565b67ffffffffffffffff811115620003555762000354620000bf565b5b6200036182546200011d565b6200036e82828562000293565b600060209050601f831160018114620003a6576000841562000391578287015190505b6200039d858262000310565b8655506200040d565b601f198416620003b68662000152565b60005b82811015620003e057848901518255600182019150602085019450602081019050620003b9565b86831015620004005784890151620003fc601f891682620002f0565b8355505b6001600288020188555050505b505050505050565b610a1e80620004256000396000f3fe60806040526004361061006f5760003560e01c80635a455c1c1161004e5780635a455c1c146100e4578063939a79ac1461010f578063e2982c2114610138578063e665b266146101755761006f565b80625c33e114610074578063031f1fc51461007e5780632ccb1b30146100bb575b600080fd5b61007c6101a0565b005b34801561008a57600080fd5b506100a560048036038101906100a091906103e3565b6101e5565b6040516100b29190610429565b60405180910390f35b3480156100c757600080fd5b506100e260048036038101906100dd9190610470565b610206565b005b3480156100f057600080fd5b506100f9610257565b6040516101069190610540565b60405180910390f35b34801561011b57600080fd5b5061013660048036038101906101319190610697565b6102e5565b005b34801561014457600080fd5b5061015f600480360381019061015a91906103e3565b610333565b60405161016c9190610429565b60405180910390f35b34801561018157600080fd5b5061018a61034b565b60405161019791906106ef565b60405180910390f35b346000803373ffffffffffffffffffffffffffffffffffffffff1673ffffffffffffffffffffffffffffffffffffffff16815260200190815260200160002081905550565b60008173ffffffffffffffffffffffffffffffffffffffff16319050919050565b60008290508073ffffffffffffffffffffffffffffffffffffffff166108fc839081150290604051600060405180830381858888f19350505050158015610251573d6000803e3d6000fd5b50505050565b6002805461026490610739565b80601f016020809104026020016040519081016040528092919081815260200182805461029090610739565b80156102dd5780601f106102b2576101008083540402835291602001916102dd565b820191906000526020600020905b8154815290600101906020018083116102c057829003601f168201915b505050505081565b60006040518060400160405280600481526020017f74656d70000000000000000000000000000000000000000000000000000000008152509050816002908161032e9190610916565b505050565b60006020528060005260406000206000915090505481565b600160009054906101000a900473ffffffffffffffffffffffffffffffffffffffff1681565b6000604051905090565b600080fd5b600080fd5b600073ffffffffffffffffffffffffffffffffffffffff82169050919050565b60006103b082610385565b9050919050565b6103c0816103a5565b81146103cb57600080fd5b50565b6000813590506103dd816103b7565b92915050565b6000602082840312156103f9576103f861037b565b5b6000610407848285016103ce565b91505092915050565b6000819050919050565b61042381610410565b82525050565b600060208201905061043e600083018461041a565b92915050565b61044d81610410565b811461045857600080fd5b50565b60008135905061046a81610444565b92915050565b600080604083850312156104875761048661037b565b5b6000610495858286016103ce565b92505060206104a68582860161045b565b9150509250929050565b600081519050919050565b600082825260208201905092915050565b60005b838110156104ea5780820151818401526020810190506104cf565b60008484015250505050565b6000601f19601f8301169050919050565b6000610512826104b0565b61051c81856104bb565b935061052c8185602086016104cc565b610535816104f6565b840191505092915050565b6000602082019050818103600083015261055a8184610507565b905092915050565b600080fd5b600080fd5b7f4e487b7100000000000000000000000000000000000000000000000000000000600052604160045260246000fd5b6105a4826104f6565b810181811067ffffffffffffffff821117156105c3576105c261056c565b5b80604052505050565b60006105d6610371565b90506105e2828261059b565b919050565b600067ffffffffffffffff8211156106025761060161056c565b5b61060b826104f6565b9050602081019050919050565b82818337600083830152505050565b600061063a610635846105e7565b6105cc565b90508281526020810184848401111561065657610655610567565b5b610661848285610618565b509392505050565b600082601f83011261067e5761067d610562565b5b813561068e848260208601610627565b91505092915050565b6000602082840312156106ad576106ac61037b565b5b600082013567ffffffffffffffff8111156106cb576106ca610380565b5b6106d784828501610669565b91505092915050565b6106e9816103a5565b82525050565b600060208201905061070460008301846106e0565b92915050565b7f4e487b7100000000000000000000000000000000000000000000000000000000600052602260045260246000fd5b6000600282049050600182168061075157607f821691505b6020821081036107645761076361070a565b5b50919050565b60008190508160005260206000209050919050565b60006020601f8301049050919050565b600082821b905092915050565b6000600883026107cc7fffffffffffffffffffffffffffffffffffffffffffffffffffffffffffffffff8261078f565b6107d6868361078f565b95508019841693508086168417925050509392505050565b6000819050919050565b600061081361080e61080984610410565b6107ee565b610410565b9050919050565b6000819050919050565b61082d836107f8565b6108416108398261081a565b84845461079c565b825550505050565b600090565b610856610849565b610861818484610824565b505050565b5b818110156108855761087a60008261084e565b600181019050610867565b5050565b601f8211156108ca5761089b8161076a565b6108a48461077f565b810160208510156108b3578190505b6108c76108bf8561077f565b830182610866565b50505b505050565b600082821c905092915050565b60006108ed600019846008026108cf565b1980831691505092915050565b600061090683836108dc565b9150826002028217905092915050565b61091f826104b0565b67ffffffffffffffff8111156109385761093761056c565b5b6109428254610739565b61094d828285610889565b600060209050601f831160018114610980576000841561096e578287015190505b61097885826108fa565b8655506109e0565b601f19841661098e8661076a565b60005b828110156109b657848901518255600182019150602085019450602081019050610991565b868310156109d357848901516109cf601f8916826108dc565b8355505b6001600288020188555050505b50505050505056fea264697066735822122052f735a99ad2b002dd97f82da31fbddf0fe527d73c35a3fc5affac589558b99864736f6c63430008120033",
					"opcodes": "PUSH1 0x80 PUSH1 0x40 MSTORE PUSH20 0x5B38DA6A701C568545DCFCB03FCB875F56BEDDC4 PUSH1 0x1 PUSH1 0x0 PUSH2 0x100 EXP DUP2 SLOAD DUP2 PUSH20 0xFFFFFFFFFFFFFFFFFFFFFFFFFFFFFFFFFFFFFFFF MUL NOT AND SWAP1 DUP4 PUSH20 0xFFFFFFFFFFFFFFFFFFFFFFFFFFFFFFFFFFFFFFFF AND MUL OR SWAP1 SSTORE POP PUSH1 0x40 MLOAD DUP1 PUSH1 0x40 ADD PUSH1 0x40 MSTORE DUP1 PUSH1 0x4 DUP2 MSTORE PUSH1 0x20 ADD PUSH32 0x7465737400000000000000000000000000000000000000000000000000000000 DUP2 MSTORE POP PUSH1 0x2 SWAP1 DUP2 PUSH3 0x9F SWAP2 SWAP1 PUSH3 0x32E JUMP JUMPDEST POP CALLVALUE DUP1 ISZERO PUSH3 0xAD JUMPI PUSH1 0x0 DUP1 REVERT JUMPDEST POP PUSH3 0x415 JUMP JUMPDEST PUSH1 0x0 DUP2 MLOAD SWAP1 POP SWAP2 SWAP1 POP JUMP JUMPDEST PUSH32 0x4E487B7100000000000000000000000000000000000000000000000000000000 PUSH1 0x0 MSTORE PUSH1 0x41 PUSH1 0x4 MSTORE PUSH1 0x24 PUSH1 0x0 REVERT JUMPDEST PUSH32 0x4E487B7100000000000000000000000000000000000000000000000000000000 PUSH1 0x0 MSTORE PUSH1 0x22 PUSH1 0x4 MSTORE PUSH1 0x24 PUSH1 0x0 REVERT JUMPDEST PUSH1 0x0 PUSH1 0x2 DUP3 DIV SWAP1 POP PUSH1 0x1 DUP3 AND DUP1 PUSH3 0x136 JUMPI PUSH1 0x7F DUP3 AND SWAP2 POP JUMPDEST PUSH1 0x20 DUP3 LT DUP2 SUB PUSH3 0x14C JUMPI PUSH3 0x14B PUSH3 0xEE JUMP JUMPDEST JUMPDEST POP SWAP2 SWAP1 POP JUMP JUMPDEST PUSH1 0x0 DUP2 SWAP1 POP DUP2 PUSH1 0x0 MSTORE PUSH1 0x20 PUSH1 0x0 KECCAK256 SWAP1 POP SWAP2 SWAP1 POP JUMP JUMPDEST PUSH1 0x0 PUSH1 0x20 PUSH1 0x1F DUP4 ADD DIV SWAP1 POP SWAP2 SWAP1 POP JUMP JUMPDEST PUSH1 0x0 DUP3 DUP3 SHL SWAP1 POP SWAP3 SWAP2 POP POP JUMP JUMPDEST PUSH1 0x0 PUSH1 0x8 DUP4 MUL PUSH3 0x1B6 PUSH32 0xFFFFFFFFFFFFFFFFFFFFFFFFFFFFFFFFFFFFFFFFFFFFFFFFFFFFFFFFFFFFFFFF DUP3 PUSH3 0x177 JUMP JUMPDEST PUSH3 0x1C2 DUP7 DUP4 PUSH3 0x177 JUMP JUMPDEST SWAP6 POP DUP1 NOT DUP5 AND SWAP4 POP DUP1 DUP7 AND DUP5 OR SWAP3 POP POP POP SWAP4 SWAP3 POP POP POP JUMP JUMPDEST PUSH1 0x0 DUP2 SWAP1 POP SWAP2 SWAP1 POP JUMP JUMPDEST PUSH1 0x0 DUP2 SWAP1 POP SWAP2 SWAP1 POP JUMP JUMPDEST PUSH1 0x0 PUSH3 0x20F PUSH3 0x209 PUSH3 0x203 DUP5 PUSH3 0x1DA JUMP JUMPDEST PUSH3 0x1E4 JUMP JUMPDEST PUSH3 0x1DA JUMP JUMPDEST SWAP1 POP SWAP2 SWAP1 POP JUMP JUMPDEST PUSH1 0x0 DUP2 SWAP1 POP SWAP2 SWAP1 POP JUMP JUMPDEST PUSH3 0x22B DUP4 PUSH3 0x1EE JUMP JUMPDEST PUSH3 0x243 PUSH3 0x23A DUP3 PUSH3 0x216 JUMP JUMPDEST DUP5 DUP5 SLOAD PUSH3 0x184 JUMP JUMPDEST DUP3 SSTORE POP POP POP POP JUMP JUMPDEST PUSH1 0x0 SWAP1 JUMP JUMPDEST PUSH3 0x25A PUSH3 0x24B JUMP JUMPDEST PUSH3 0x267 DUP2 DUP5 DUP5 PUSH3 0x220 JUMP JUMPDEST POP POP POP JUMP JUMPDEST JUMPDEST DUP2 DUP2 LT ISZERO PUSH3 0x28F JUMPI PUSH3 0x283 PUSH1 0x0 DUP3 PUSH3 0x250 JUMP JUMPDEST PUSH1 0x1 DUP2 ADD SWAP1 POP PUSH3 0x26D JUMP JUMPDEST POP POP JUMP JUMPDEST PUSH1 0x1F DUP3 GT ISZERO PUSH3 0x2DE JUMPI PUSH3 0x2A8 DUP2 PUSH3 0x152 JUMP JUMPDEST PUSH3 0x2B3 DUP5 PUSH3 0x167 JUMP JUMPDEST DUP2 ADD PUSH1 0x20 DUP6 LT ISZERO PUSH3 0x2C3 JUMPI DUP2 SWAP1 POP JUMPDEST PUSH3 0x2DB PUSH3 0x2D2 DUP6 PUSH3 0x167 JUMP JUMPDEST DUP4 ADD DUP3 PUSH3 0x26C JUMP JUMPDEST POP POP JUMPDEST POP POP POP JUMP JUMPDEST PUSH1 0x0 DUP3 DUP3 SHR SWAP1 POP SWAP3 SWAP2 POP POP JUMP JUMPDEST PUSH1 0x0 PUSH3 0x303 PUSH1 0x0 NOT DUP5 PUSH1 0x8 MUL PUSH3 0x2E3 JUMP JUMPDEST NOT DUP1 DUP4 AND SWAP2 POP POP SWAP3 SWAP2 POP POP JUMP JUMPDEST PUSH1 0x0 PUSH3 0x31E DUP4 DUP4 PUSH3 0x2F0 JUMP JUMPDEST SWAP2 POP DUP3 PUSH1 0x2 MUL DUP3 OR SWAP1 POP SWAP3 SWAP2 POP POP JUMP JUMPDEST PUSH3 0x339 DUP3 PUSH3 0xB4 JUMP JUMPDEST PUSH8 0xFFFFFFFFFFFFFFFF DUP2 GT ISZERO PUSH3 0x355 JUMPI PUSH3 0x354 PUSH3 0xBF JUMP JUMPDEST JUMPDEST PUSH3 0x361 DUP3 SLOAD PUSH3 0x11D JUMP JUMPDEST PUSH3 0x36E DUP3 DUP3 DUP6 PUSH3 0x293 JUMP JUMPDEST PUSH1 0x0 PUSH1 0x20 SWAP1 POP PUSH1 0x1F DUP4 GT PUSH1 0x1 DUP2 EQ PUSH3 0x3A6 JUMPI PUSH1 0x0 DUP5 ISZERO PUSH3 0x391 JUMPI DUP3 DUP8 ADD MLOAD SWAP1 POP JUMPDEST PUSH3 0x39D DUP6 DUP3 PUSH3 0x310 JUMP JUMPDEST DUP7 SSTORE POP PUSH3 0x40D JUMP JUMPDEST PUSH1 0x1F NOT DUP5 AND PUSH3 0x3B6 DUP7 PUSH3 0x152 JUMP JUMPDEST PUSH1 0x0 JUMPDEST DUP3 DUP2 LT ISZERO PUSH3 0x3E0 JUMPI DUP5 DUP10 ADD MLOAD DUP3 SSTORE PUSH1 0x1 DUP3 ADD SWAP2 POP PUSH1 0x20 DUP6 ADD SWAP5 POP PUSH1 0x20 DUP2 ADD SWAP1 POP PUSH3 0x3B9 JUMP JUMPDEST DUP7 DUP4 LT ISZERO PUSH3 0x400 JUMPI DUP5 DUP10 ADD MLOAD PUSH3 0x3FC PUSH1 0x1F DUP10 AND DUP3 PUSH3 0x2F0 JUMP JUMPDEST DUP4 SSTORE POP JUMPDEST PUSH1 0x1 PUSH1 0x2 DUP9 MUL ADD DUP9 SSTORE POP POP POP JUMPDEST POP POP POP POP POP POP JUMP JUMPDEST PUSH2 0xA1E DUP1 PUSH3 0x425 PUSH1 0x0 CODECOPY PUSH1 0x0 RETURN INVALID PUSH1 0x80 PUSH1 0x40 MSTORE PUSH1 0x4 CALLDATASIZE LT PUSH2 0x6F JUMPI PUSH1 0x0 CALLDATALOAD PUSH1 0xE0 SHR DUP1 PUSH4 0x5A455C1C GT PUSH2 0x4E JUMPI DUP1 PUSH4 0x5A455C1C EQ PUSH2 0xE4 JUMPI DUP1 PUSH4 0x939A79AC EQ PUSH2 0x10F JUMPI DUP1 PUSH4 0xE2982C21 EQ PUSH2 0x138 JUMPI DUP1 PUSH4 0xE665B266 EQ PUSH2 0x175 JUMPI PUSH2 0x6F JUMP JUMPDEST DUP1 PUSH3 0x5C33E1 EQ PUSH2 0x74 JUMPI DUP1 PUSH4 0x31F1FC5 EQ PUSH2 0x7E JUMPI DUP1 PUSH4 0x2CCB1B30 EQ PUSH2 0xBB JUMPI JUMPDEST PUSH1 0x0 DUP1 REVERT JUMPDEST PUSH2 0x7C PUSH2 0x1A0 JUMP JUMPDEST STOP JUMPDEST CALLVALUE DUP1 ISZERO PUSH2 0x8A JUMPI PUSH1 0x0 DUP1 REVERT JUMPDEST POP PUSH2 0xA5 PUSH1 0x4 DUP1 CALLDATASIZE SUB DUP2 ADD SWAP1 PUSH2 0xA0 SWAP2 SWAP1 PUSH2 0x3E3 JUMP JUMPDEST PUSH2 0x1E5 JUMP JUMPDEST PUSH1 0x40 MLOAD PUSH2 0xB2 SWAP2 SWAP1 PUSH2 0x429 JUMP JUMPDEST PUSH1 0x40 MLOAD DUP1 SWAP2 SUB SWAP1 RETURN JUMPDEST CALLVALUE DUP1 ISZERO PUSH2 0xC7 JUMPI PUSH1 0x0 DUP1 REVERT JUMPDEST POP PUSH2 0xE2 PUSH1 0x4 DUP1 CALLDATASIZE SUB DUP2 ADD SWAP1 PUSH2 0xDD SWAP2 SWAP1 PUSH2 0x470 JUMP JUMPDEST PUSH2 0x206 JUMP JUMPDEST STOP JUMPDEST CALLVALUE DUP1 ISZERO PUSH2 0xF0 JUMPI PUSH1 0x0 DUP1 REVERT JUMPDEST POP PUSH2 0xF9 PUSH2 0x257 JUMP JUMPDEST PUSH1 0x40 MLOAD PUSH2 0x106 SWAP2 SWAP1 PUSH2 0x540 JUMP JUMPDEST PUSH1 0x40 MLOAD DUP1 SWAP2 SUB SWAP1 RETURN JUMPDEST CALLVALUE DUP1 ISZERO PUSH2 0x11B JUMPI PUSH1 0x0 DUP1 REVERT JUMPDEST POP PUSH2 0x136 PUSH1 0x4 DUP1 CALLDATASIZE SUB DUP2 ADD SWAP1 PUSH2 0x131 SWAP2 SWAP1 PUSH2 0x697 JUMP JUMPDEST PUSH2 0x2E5 JUMP JUMPDEST STOP JUMPDEST CALLVALUE DUP1 ISZERO PUSH2 0x144 JUMPI PUSH1 0x0 DUP1 REVERT JUMPDEST POP PUSH2 0x15F PUSH1 0x4 DUP1 CALLDATASIZE SUB DUP2 ADD SWAP1 PUSH2 0x15A SWAP2 SWAP1 PUSH2 0x3E3 JUMP JUMPDEST PUSH2 0x333 JUMP JUMPDEST PUSH1 0x40 MLOAD PUSH2 0x16C SWAP2 SWAP1 PUSH2 0x429 JUMP JUMPDEST PUSH1 0x40 MLOAD DUP1 SWAP2 SUB SWAP1 RETURN JUMPDEST CALLVALUE DUP1 ISZERO PUSH2 0x181 JUMPI PUSH1 0x0 DUP1 REVERT JUMPDEST POP PUSH2 0x18A PUSH2 0x34B JUMP JUMPDEST PUSH1 0x40 MLOAD PUSH2 0x197 SWAP2 SWAP1 PUSH2 0x6EF JUMP JUMPDEST PUSH1 0x40 MLOAD DUP1 SWAP2 SUB SWAP1 RETURN JUMPDEST CALLVALUE PUSH1 0x0 DUP1 CALLER PUSH20 0xFFFFFFFFFFFFFFFFFFFFFFFFFFFFFFFFFFFFFFFF AND PUSH20 0xFFFFFFFFFFFFFFFFFFFFFFFFFFFFFFFFFFFFFFFF AND DUP2 MSTORE PUSH1 0x20 ADD SWAP1 DUP2 MSTORE PUSH1 0x20 ADD PUSH1 0x0 KECCAK256 DUP2 SWAP1 SSTORE POP JUMP JUMPDEST PUSH1 0x0 DUP2 PUSH20 0xFFFFFFFFFFFFFFFFFFFFFFFFFFFFFFFFFFFFFFFF AND BALANCE SWAP1 POP SWAP2 SWAP1 POP JUMP JUMPDEST PUSH1 0x0 DUP3 SWAP1 POP DUP1 PUSH20 0xFFFFFFFFFFFFFFFFFFFFFFFFFFFFFFFFFFFFFFFF AND PUSH2 0x8FC DUP4 SWAP1 DUP2 ISZERO MUL SWAP1 PUSH1 0x40 MLOAD PUSH1 0x0 PUSH1 0x40 MLOAD DUP1 DUP4 SUB DUP2 DUP6 DUP9 DUP9 CALL SWAP4 POP POP POP POP ISZERO DUP1 ISZERO PUSH2 0x251 JUMPI RETURNDATASIZE PUSH1 0x0 DUP1 RETURNDATACOPY RETURNDATASIZE PUSH1 0x0 REVERT JUMPDEST POP POP POP POP JUMP JUMPDEST PUSH1 0x2 DUP1 SLOAD PUSH2 0x264 SWAP1 PUSH2 0x739 JUMP JUMPDEST DUP1 PUSH1 0x1F ADD PUSH1 0x20 DUP1 SWAP2 DIV MUL PUSH1 0x20 ADD PUSH1 0x40 MLOAD SWAP1 DUP2 ADD PUSH1 0x40 MSTORE DUP1 SWAP3 SWAP2 SWAP1 DUP2 DUP2 MSTORE PUSH1 0x20 ADD DUP3 DUP1 SLOAD PUSH2 0x290 SWAP1 PUSH2 0x739 JUMP JUMPDEST DUP1 ISZERO PUSH2 0x2DD JUMPI DUP1 PUSH1 0x1F LT PUSH2 0x2B2 JUMPI PUSH2 0x100 DUP1 DUP4 SLOAD DIV MUL DUP4 MSTORE SWAP2 PUSH1 0x20 ADD SWAP2 PUSH2 0x2DD JUMP JUMPDEST DUP3 ADD SWAP2 SWAP1 PUSH1 0x0 MSTORE PUSH1 0x20 PUSH1 0x0 KECCAK256 SWAP1 JUMPDEST DUP2 SLOAD DUP2 MSTORE SWAP1 PUSH1 0x1 ADD SWAP1 PUSH1 0x20 ADD DUP1 DUP4 GT PUSH2 0x2C0 JUMPI DUP3 SWAP1 SUB PUSH1 0x1F AND DUP3 ADD SWAP2 JUMPDEST POP POP POP POP POP DUP2 JUMP JUMPDEST PUSH1 0x0 PUSH1 0x40 MLOAD DUP1 PUSH1 0x40 ADD PUSH1 0x40 MSTORE DUP1 PUSH1 0x4 DUP2 MSTORE PUSH1 0x20 ADD PUSH32 0x74656D7000000000000000000000000000000000000000000000000000000000 DUP2 MSTORE POP SWAP1 POP DUP2 PUSH1 0x2 SWAP1 DUP2 PUSH2 0x32E SWAP2 SWAP1 PUSH2 0x916 JUMP JUMPDEST POP POP POP JUMP JUMPDEST PUSH1 0x0 PUSH1 0x20 MSTORE DUP1 PUSH1 0x0 MSTORE PUSH1 0x40 PUSH1 0x0 KECCAK256 PUSH1 0x0 SWAP2 POP SWAP1 POP SLOAD DUP2 JUMP JUMPDEST PUSH1 0x1 PUSH1 0x0 SWAP1 SLOAD SWAP1 PUSH2 0x100 EXP SWAP1 DIV PUSH20 0xFFFFFFFFFFFFFFFFFFFFFFFFFFFFFFFFFFFFFFFF AND DUP2 JUMP JUMPDEST PUSH1 0x0 PUSH1 0x40 MLOAD SWAP1 POP SWAP1 JUMP JUMPDEST PUSH1 0x0 DUP1 REVERT JUMPDEST PUSH1 0x0 DUP1 REVERT JUMPDEST PUSH1 0x0 PUSH20 0xFFFFFFFFFFFFFFFFFFFFFFFFFFFFFFFFFFFFFFFF DUP3 AND SWAP1 POP SWAP2 SWAP1 POP JUMP JUMPDEST PUSH1 0x0 PUSH2 0x3B0 DUP3 PUSH2 0x385 JUMP JUMPDEST SWAP1 POP SWAP2 SWAP1 POP JUMP JUMPDEST PUSH2 0x3C0 DUP2 PUSH2 0x3A5 JUMP JUMPDEST DUP2 EQ PUSH2 0x3CB JUMPI PUSH1 0x0 DUP1 REVERT JUMPDEST POP JUMP JUMPDEST PUSH1 0x0 DUP2 CALLDATALOAD SWAP1 POP PUSH2 0x3DD DUP2 PUSH2 0x3B7 JUMP JUMPDEST SWAP3 SWAP2 POP POP JUMP JUMPDEST PUSH1 0x0 PUSH1 0x20 DUP3 DUP5 SUB SLT ISZERO PUSH2 0x3F9 JUMPI PUSH2 0x3F8 PUSH2 0x37B JUMP JUMPDEST JUMPDEST PUSH1 0x0 PUSH2 0x407 DUP5 DUP3 DUP6 ADD PUSH2 0x3CE JUMP JUMPDEST SWAP2 POP POP SWAP3 SWAP2 POP POP JUMP JUMPDEST PUSH1 0x0 DUP2 SWAP1 POP SWAP2 SWAP1 POP JUMP JUMPDEST PUSH2 0x423 DUP2 PUSH2 0x410 JUMP JUMPDEST DUP3 MSTORE POP POP JUMP JUMPDEST PUSH1 0x0 PUSH1 0x20 DUP3 ADD SWAP1 POP PUSH2 0x43E PUSH1 0x0 DUP4 ADD DUP5 PUSH2 0x41A JUMP JUMPDEST SWAP3 SWAP2 POP POP JUMP JUMPDEST PUSH2 0x44D DUP2 PUSH2 0x410 JUMP JUMPDEST DUP2 EQ PUSH2 0x458 JUMPI PUSH1 0x0 DUP1 REVERT JUMPDEST POP JUMP JUMPDEST PUSH1 0x0 DUP2 CALLDATALOAD SWAP1 POP PUSH2 0x46A DUP2 PUSH2 0x444 JUMP JUMPDEST SWAP3 SWAP2 POP POP JUMP JUMPDEST PUSH1 0x0 DUP1 PUSH1 0x40 DUP4 DUP6 SUB SLT ISZERO PUSH2 0x487 JUMPI PUSH2 0x486 PUSH2 0x37B JUMP JUMPDEST JUMPDEST PUSH1 0x0 PUSH2 0x495 DUP6 DUP3 DUP7 ADD PUSH2 0x3CE JUMP JUMPDEST SWAP3 POP POP PUSH1 0x20 PUSH2 0x4A6 DUP6 DUP3 DUP7 ADD PUSH2 0x45B JUMP JUMPDEST SWAP2 POP POP SWAP3 POP SWAP3 SWAP1 POP JUMP JUMPDEST PUSH1 0x0 DUP2 MLOAD SWAP1 POP SWAP2 SWAP1 POP JUMP JUMPDEST PUSH1 0x0 DUP3 DUP3 MSTORE PUSH1 0x20 DUP3 ADD SWAP1 POP SWAP3 SWAP2 POP POP JUMP JUMPDEST PUSH1 0x0 JUMPDEST DUP4 DUP2 LT ISZERO PUSH2 0x4EA JUMPI DUP1 DUP3 ADD MLOAD DUP2 DUP5 ADD MSTORE PUSH1 0x20 DUP2 ADD SWAP1 POP PUSH2 0x4CF JUMP JUMPDEST PUSH1 0x0 DUP5 DUP5 ADD MSTORE POP POP POP POP JUMP JUMPDEST PUSH1 0x0 PUSH1 0x1F NOT PUSH1 0x1F DUP4 ADD AND SWAP1 POP SWAP2 SWAP1 POP JUMP JUMPDEST PUSH1 0x0 PUSH2 0x512 DUP3 PUSH2 0x4B0 JUMP JUMPDEST PUSH2 0x51C DUP2 DUP6 PUSH2 0x4BB JUMP JUMPDEST SWAP4 POP PUSH2 0x52C DUP2 DUP6 PUSH1 0x20 DUP7 ADD PUSH2 0x4CC JUMP JUMPDEST PUSH2 0x535 DUP2 PUSH2 0x4F6 JUMP JUMPDEST DUP5 ADD SWAP2 POP POP SWAP3 SWAP2 POP POP JUMP JUMPDEST PUSH1 0x0 PUSH1 0x20 DUP3 ADD SWAP1 POP DUP2 DUP2 SUB PUSH1 0x0 DUP4 ADD MSTORE PUSH2 0x55A DUP2 DUP5 PUSH2 0x507 JUMP JUMPDEST SWAP1 POP SWAP3 SWAP2 POP POP JUMP JUMPDEST PUSH1 0x0 DUP1 REVERT JUMPDEST PUSH1 0x0 DUP1 REVERT JUMPDEST PUSH32 0x4E487B7100000000000000000000000000000000000000000000000000000000 PUSH1 0x0 MSTORE PUSH1 0x41 PUSH1 0x4 MSTORE PUSH1 0x24 PUSH1 0x0 REVERT JUMPDEST PUSH2 0x5A4 DUP3 PUSH2 0x4F6 JUMP JUMPDEST DUP2 ADD DUP2 DUP2 LT PUSH8 0xFFFFFFFFFFFFFFFF DUP3 GT OR ISZERO PUSH2 0x5C3 JUMPI PUSH2 0x5C2 PUSH2 0x56C JUMP JUMPDEST JUMPDEST DUP1 PUSH1 0x40 MSTORE POP POP POP JUMP JUMPDEST PUSH1 0x0 PUSH2 0x5D6 PUSH2 0x371 JUMP JUMPDEST SWAP1 POP PUSH2 0x5E2 DUP3 DUP3 PUSH2 0x59B JUMP JUMPDEST SWAP2 SWAP1 POP JUMP JUMPDEST PUSH1 0x0 PUSH8 0xFFFFFFFFFFFFFFFF DUP3 GT ISZERO PUSH2 0x602 JUMPI PUSH2 0x601 PUSH2 0x56C JUMP JUMPDEST JUMPDEST PUSH2 0x60B DUP3 PUSH2 0x4F6 JUMP JUMPDEST SWAP1 POP PUSH1 0x20 DUP2 ADD SWAP1 POP SWAP2 SWAP1 POP JUMP JUMPDEST DUP3 DUP2 DUP4 CALLDATACOPY PUSH1 0x0 DUP4 DUP4 ADD MSTORE POP POP POP JUMP JUMPDEST PUSH1 0x0 PUSH2 0x63A PUSH2 0x635 DUP5 PUSH2 0x5E7 JUMP JUMPDEST PUSH2 0x5CC JUMP JUMPDEST SWAP1 POP DUP3 DUP2 MSTORE PUSH1 0x20 DUP2 ADD DUP5 DUP5 DUP5 ADD GT ISZERO PUSH2 0x656 JUMPI PUSH2 0x655 PUSH2 0x567 JUMP JUMPDEST JUMPDEST PUSH2 0x661 DUP5 DUP3 DUP6 PUSH2 0x618 JUMP JUMPDEST POP SWAP4 SWAP3 POP POP POP JUMP JUMPDEST PUSH1 0x0 DUP3 PUSH1 0x1F DUP4 ADD SLT PUSH2 0x67E JUMPI PUSH2 0x67D PUSH2 0x562 JUMP JUMPDEST JUMPDEST DUP2 CALLDATALOAD PUSH2 0x68E DUP5 DUP3 PUSH1 0x20 DUP7 ADD PUSH2 0x627 JUMP JUMPDEST SWAP2 POP POP SWAP3 SWAP2 POP POP JUMP JUMPDEST PUSH1 0x0 PUSH1 0x20 DUP3 DUP5 SUB SLT ISZERO PUSH2 0x6AD JUMPI PUSH2 0x6AC PUSH2 0x37B JUMP JUMPDEST JUMPDEST PUSH1 0x0 DUP3 ADD CALLDATALOAD PUSH8 0xFFFFFFFFFFFFFFFF DUP2 GT ISZERO PUSH2 0x6CB JUMPI PUSH2 0x6CA PUSH2 0x380 JUMP JUMPDEST JUMPDEST PUSH2 0x6D7 DUP5 DUP3 DUP6 ADD PUSH2 0x669 JUMP JUMPDEST SWAP2 POP POP SWAP3 SWAP2 POP POP JUMP JUMPDEST PUSH2 0x6E9 DUP2 PUSH2 0x3A5 JUMP JUMPDEST DUP3 MSTORE POP POP JUMP JUMPDEST PUSH1 0x0 PUSH1 0x20 DUP3 ADD SWAP1 POP PUSH2 0x704 PUSH1 0x0 DUP4 ADD DUP5 PUSH2 0x6E0 JUMP JUMPDEST SWAP3 SWAP2 POP POP JUMP JUMPDEST PUSH32 0x4E487B7100000000000000000000000000000000000000000000000000000000 PUSH1 0x0 MSTORE PUSH1 0x22 PUSH1 0x4 MSTORE PUSH1 0x24 PUSH1 0x0 REVERT JUMPDEST PUSH1 0x0 PUSH1 0x2 DUP3 DIV SWAP1 POP PUSH1 0x1 DUP3 AND DUP1 PUSH2 0x751 JUMPI PUSH1 0x7F DUP3 AND SWAP2 POP JUMPDEST PUSH1 0x20 DUP3 LT DUP2 SUB PUSH2 0x764 JUMPI PUSH2 0x763 PUSH2 0x70A JUMP JUMPDEST JUMPDEST POP SWAP2 SWAP1 POP JUMP JUMPDEST PUSH1 0x0 DUP2 SWAP1 POP DUP2 PUSH1 0x0 MSTORE PUSH1 0x20 PUSH1 0x0 KECCAK256 SWAP1 POP SWAP2 SWAP1 POP JUMP JUMPDEST PUSH1 0x0 PUSH1 0x20 PUSH1 0x1F DUP4 ADD DIV SWAP1 POP SWAP2 SWAP1 POP JUMP JUMPDEST PUSH1 0x0 DUP3 DUP3 SHL SWAP1 POP SWAP3 SWAP2 POP POP JUMP JUMPDEST PUSH1 0x0 PUSH1 0x8 DUP4 MUL PUSH2 0x7CC PUSH32 0xFFFFFFFFFFFFFFFFFFFFFFFFFFFFFFFFFFFFFFFFFFFFFFFFFFFFFFFFFFFFFFFF DUP3 PUSH2 0x78F JUMP JUMPDEST PUSH2 0x7D6 DUP7 DUP4 PUSH2 0x78F JUMP JUMPDEST SWAP6 POP DUP1 NOT DUP5 AND SWAP4 POP DUP1 DUP7 AND DUP5 OR SWAP3 POP POP POP SWAP4 SWAP3 POP POP POP JUMP JUMPDEST PUSH1 0x0 DUP2 SWAP1 POP SWAP2 SWAP1 POP JUMP JUMPDEST PUSH1 0x0 PUSH2 0x813 PUSH2 0x80E PUSH2 0x809 DUP5 PUSH2 0x410 JUMP JUMPDEST PUSH2 0x7EE JUMP JUMPDEST PUSH2 0x410 JUMP JUMPDEST SWAP1 POP SWAP2 SWAP1 POP JUMP JUMPDEST PUSH1 0x0 DUP2 SWAP1 POP SWAP2 SWAP1 POP JUMP JUMPDEST PUSH2 0x82D DUP4 PUSH2 0x7F8 JUMP JUMPDEST PUSH2 0x841 PUSH2 0x839 DUP3 PUSH2 0x81A JUMP JUMPDEST DUP5 DUP5 SLOAD PUSH2 0x79C JUMP JUMPDEST DUP3 SSTORE POP POP POP POP JUMP JUMPDEST PUSH1 0x0 SWAP1 JUMP JUMPDEST PUSH2 0x856 PUSH2 0x849 JUMP JUMPDEST PUSH2 0x861 DUP2 DUP5 DUP5 PUSH2 0x824 JUMP JUMPDEST POP POP POP JUMP JUMPDEST JUMPDEST DUP2 DUP2 LT ISZERO PUSH2 0x885 JUMPI PUSH2 0x87A PUSH1 0x0 DUP3 PUSH2 0x84E JUMP JUMPDEST PUSH1 0x1 DUP2 ADD SWAP1 POP PUSH2 0x867 JUMP JUMPDEST POP POP JUMP JUMPDEST PUSH1 0x1F DUP3 GT ISZERO PUSH2 0x8CA JUMPI PUSH2 0x89B DUP2 PUSH2 0x76A JUMP JUMPDEST PUSH2 0x8A4 DUP5 PUSH2 0x77F JUMP JUMPDEST DUP2 ADD PUSH1 0x20 DUP6 LT ISZERO PUSH2 0x8B3 JUMPI DUP2 SWAP1 POP JUMPDEST PUSH2 0x8C7 PUSH2 0x8BF DUP6 PUSH2 0x77F JUMP JUMPDEST DUP4 ADD DUP3 PUSH2 0x866 JUMP JUMPDEST POP POP JUMPDEST POP POP POP JUMP JUMPDEST PUSH1 0x0 DUP3 DUP3 SHR SWAP1 POP SWAP3 SWAP2 POP POP JUMP JUMPDEST PUSH1 0x0 PUSH2 0x8ED PUSH1 0x0 NOT DUP5 PUSH1 0x8 MUL PUSH2 0x8CF JUMP JUMPDEST NOT DUP1 DUP4 AND SWAP2 POP POP SWAP3 SWAP2 POP POP JUMP JUMPDEST PUSH1 0x0 PUSH2 0x906 DUP4 DUP4 PUSH2 0x8DC JUMP JUMPDEST SWAP2 POP DUP3 PUSH1 0x2 MUL DUP3 OR SWAP1 POP SWAP3 SWAP2 POP POP JUMP JUMPDEST PUSH2 0x91F DUP3 PUSH2 0x4B0 JUMP JUMPDEST PUSH8 0xFFFFFFFFFFFFFFFF DUP2 GT ISZERO PUSH2 0x938 JUMPI PUSH2 0x937 PUSH2 0x56C JUMP JUMPDEST JUMPDEST PUSH2 0x942 DUP3 SLOAD PUSH2 0x739 JUMP JUMPDEST PUSH2 0x94D DUP3 DUP3 DUP6 PUSH2 0x889 JUMP JUMPDEST PUSH1 0x0 PUSH1 0x20 SWAP1 POP PUSH1 0x1F DUP4 GT PUSH1 0x1 DUP2 EQ PUSH2 0x980 JUMPI PUSH1 0x0 DUP5 ISZERO PUSH2 0x96E JUMPI DUP3 DUP8 ADD MLOAD SWAP1 POP JUMPDEST PUSH2 0x978 DUP6 DUP3 PUSH2 0x8FA JUMP JUMPDEST DUP7 SSTORE POP PUSH2 0x9E0 JUMP JUMPDEST PUSH1 0x1F NOT DUP5 AND PUSH2 0x98E DUP7 PUSH2 0x76A JUMP JUMPDEST PUSH1 0x0 JUMPDEST DUP3 DUP2 LT ISZERO PUSH2 0x9B6 JUMPI DUP5 DUP10 ADD MLOAD DUP3 SSTORE PUSH1 0x1 DUP3 ADD SWAP2 POP PUSH1 0x20 DUP6 ADD SWAP5 POP PUSH1 0x20 DUP2 ADD SWAP1 POP PUSH2 0x991 JUMP JUMPDEST DUP7 DUP4 LT ISZERO PUSH2 0x9D3 JUMPI DUP5 DUP10 ADD MLOAD PUSH2 0x9CF PUSH1 0x1F DUP10 AND DUP3 PUSH2 0x8DC JUMP JUMPDEST DUP4 SSTORE POP JUMPDEST PUSH1 0x1 PUSH1 0x2 DUP9 MUL ADD DUP9 SSTORE POP POP POP JUMPDEST POP POP POP POP POP POP JUMP INVALID LOG2 PUSH5 0x6970667358 0x22 SLT KECCAK256 MSTORE 0xF7 CALLDATALOAD 0xA9 SWAP11 0xD2 0xB0 MUL 0xDD SWAP8 0xF8 0x2D LOG3 0x1F 0xBD 0xDF 0xF 0xE5 0x27 0xD7 EXTCODECOPY CALLDATALOAD LOG3 0xFC GAS SELFDESTRUCT 0xAC PC SWAP6 PC 0xB9 SWAP9 PUSH5 0x736F6C6343 STOP ADDMOD SLT STOP CALLER "
				},
				"gasEstimates": {
					"creation": {
						"codeDepositCost": "518000",
						"executionCost": "infinite",
						"totalCost": "infinite"
					},
					"external": {
						"demo(string)": "infinite",
						"getBlance(address)": "3280",
						"myAddr()": "2580",
						"myStr()": "infinite",
						"payments(address)": "2858",
						"receiveFunds()": "22323",
						"transferTo(address,uint256)": "infinite"
					}
				},
				"methodIdentifiers": {
					"demo(string)": "939a79ac",
					"getBlance(address)": "031f1fc5",
					"myAddr()": "e665b266",
					"myStr()": "5a455c1c",
					"payments(address)": "e2982c21",
					"receiveFunds()": "005c33e1",
					"transferTo(address,uint256)": "2ccb1b30"
				}
			},
			"storageLayout": {
				"storage": [
					{
						"astId": 5,
						"contract": "lesson_3_string_address_mapping/Demo.sol:Demo",
						"label": "payments",
						"offset": 0,
						"slot": "0",
						"type": "t_mapping(t_address,t_uint256)"
					},
					{
						"astId": 8,
						"contract": "lesson_3_string_address_mapping/Demo.sol:Demo",
						"label": "myAddr",
						"offset": 0,
						"slot": "1",
						"type": "t_address"
					},
					{
						"astId": 55,
						"contract": "lesson_3_string_address_mapping/Demo.sol:Demo",
						"label": "myStr",
						"offset": 0,
						"slot": "2",
						"type": "t_string_storage"
					}
				],
				"types": {
					"t_address": {
						"encoding": "inplace",
						"label": "address",
						"numberOfBytes": "20"
					},
					"t_mapping(t_address,t_uint256)": {
						"encoding": "mapping",
						"key": "t_address",
						"label": "mapping(address => uint256)",
						"numberOfBytes": "32",
						"value": "t_uint256"
					},
					"t_string_storage": {
						"encoding": "bytes",
						"label": "string",
						"numberOfBytes": "32"
					},
					"t_uint256": {
						"encoding": "inplace",
						"label": "uint256",
						"numberOfBytes": "32"
					}
				}
			},
			"userdoc": {
				"kind": "user",
				"methods": {},
				"version": 1
			}
		}
	}
}