{
    "contractName": "Payments",
    "abi": [
        {
            "inputs": [
                {
                    "internalType": "address",
                    "name": "",
                    "type": "address"
                }
            ],
            "name": "balances",
            "outputs": [
                {
                    "internalType": "uint256",
                    "name": "totalPayments",
                    "type": "uint256"
                }
            ],
            "stateMutability": "view",
            "type": "function"
        },
        {
            "inputs": [
                {
                    "internalType": "address",
                    "name": "_addr",
                    "type": "address"
                },
                {
                    "internalType": "uint256",
                    "name": "_index",
                    "type": "uint256"
                }
            ],
            "name": "getPayment",
            "outputs": [
                {
                    "components": [
                        {
                            "internalType": "uint256",
                            "name": "amount",
                            "type": "uint256"
                        },
                        {
                            "internalType": "uint256",
                            "name": "timestamp",
                            "type": "uint256"
                        },
                        {
                            "internalType": "address",
                            "name": "from",
                            "type": "address"
                        },
                        {
                            "internalType": "string",
                            "name": "message",
                            "type": "string"
                        }
                    ],
                    "internalType": "struct Payments.Payment",
                    "name": "",
                    "type": "tuple"
                }
            ],
            "stateMutability": "view",
            "type": "function"
        },
        {
            "inputs": [
                {
                    "internalType": "string",
                    "name": "message",
                    "type": "string"
                }
            ],
            "name": "pay",
            "outputs": [],
            "stateMutability": "payable",
            "type": "function"
        }
    ],
    "bytecode": "608060405234801561001057600080fd5b506105d9806100206000396000f3fe6080604052600436106100345760003560e01c806327e235e3146100395780632b66d72e14610079578063977a767c1461008e575b600080fd5b34801561004557600080fd5b506100666100543660046102a8565b60006020819052908152604090205481565b6040519081526020015b60405180910390f35b61008c6100873660046102e0565b6100bb565b005b34801561009a57600080fd5b506100ae6100a9366004610391565b610168565b60405161007091906103bb565b3360009081526020819052604081208054918291906100d983610437565b9091555050604080516080810182523481524260208083019182523383850181815260608501888152600092835282845286832088845260019081019094529590912084518155925191830191909155516002820180546001600160a01b0319166001600160a01b03909216919091179055915190918291600382019061016090826104e3565b505050505050565b61019c6040518060800160405280600081526020016000815260200160006001600160a01b03168152602001606081525090565b6001600160a01b03808416600090815260208181526040808320868452600190810183529281902081516080810183528154815293810154928401929092526002820154909316928201929092526003820180549192916060840191906102029061045e565b80601f016020809104026020016040519081016040528092919081815260200182805461022e9061045e565b801561027b5780601f106102505761010080835404028352916020019161027b565b820191906000526020600020905b81548152906001019060200180831161025e57829003601f168201915b505050505081525050905092915050565b80356001600160a01b03811681146102a357600080fd5b919050565b6000602082840312156102ba57600080fd5b6102c38261028c565b9392505050565b634e487b7160e01b600052604160045260246000fd5b6000602082840312156102f257600080fd5b813567ffffffffffffffff8082111561030a57600080fd5b818401915084601f83011261031e57600080fd5b813581811115610330576103306102ca565b604051601f8201601f19908116603f01168101908382118183101715610358576103586102ca565b8160405282815287602084870101111561037157600080fd5b826020860160208301376000928101602001929092525095945050505050565b600080604083850312156103a457600080fd5b6103ad8361028c565b946020939093013593505050565b6000602080835283518184015280840151604084015260018060a01b036040850151166060840152606084015160808085015280518060a086015260005b818110156104155782810184015186820160c0015283016103f9565b50600060c0828701015260c0601f19601f830116860101935050505092915050565b60006001820161045757634e487b7160e01b600052601160045260246000fd5b5060010190565b600181811c9082168061047257607f821691505b60208210810361049257634e487b7160e01b600052602260045260246000fd5b50919050565b601f8211156104de57600081815260208120601f850160051c810160208610156104bf5750805b601f850160051c820191505b81811015610160578281556001016104cb565b505050565b815167ffffffffffffffff8111156104fd576104fd6102ca565b6105118161050b845461045e565b84610498565b602080601f831160018114610546576000841561052e5750858301515b600019600386901b1c1916600185901b178555610160565b600085815260208120601f198616915b8281101561057557888601518255948401946001909101908401610556565b50858210156105935787850151600019600388901b60f8161c191681555b5050505050600190811b0190555056fea26469706673582212202b63896d6e938416bad9a261e96cf1663a2e3e4a75553b89d737d3594123f7b764736f6c63430008130033",
    "sourcePath": "c:/Users/Admin/Desktop/solidity-smart-contracts-ethereum/lesson_5_tests/contracts/Payments.sol",
    "compiler": {
        "name": "solc",
        "version": "0.8.19+commit.7dd6d404"
    },
    "functionHashes": {
        "balances(address)": "27e235e3",
        "getPayment(address,uint256)": "977a767c",
        "pay(string)": "2b66d72e"
    },
    "gasEstimates": {
        "creation": {
            "codeDepositCost": "299400",
            "executionCost": "337",
            "totalCost": "299737"
        },
        "external": {
            "balances(address)": "2489",
            "getPayment(address,uint256)": "infinite",
            "pay(string)": "infinite"
        }
    }
}